{
  "_format": "hh-sol-artifact-1",
  "contractName": "EventVexAccessControl",
  "sourceName": "contracts/src/governance/EventVexAccessControl.sol",
  "abi": [
    {
      "inputs": [],
      "stateMutability": "nonpayable",
      "type": "constructor"
    },
    {
      "inputs": [],
      "name": "AccessControlBadConfirmation",
      "type": "error"
    },
    {
      "inputs": [
        {
          "internalType": "address",
          "name": "account",
          "type": "address"
        },
        {
          "internalType": "bytes32",
          "name": "neededRole",
          "type": "bytes32"
        }
      ],
      "name": "AccessControlUnauthorizedAccount",
      "type": "error"
    },
    {
      "inputs": [],
      "name": "EnforcedPause",
      "type": "error"
    },
    {
      "inputs": [],
      "name": "ExpectedPause",
      "type": "error"
    },
    {
      "inputs": [],
      "name": "ReentrancyGuardReentrantCall",
      "type": "error"
    },
    {
      "anonymous": false,
      "inputs": [
        {
          "indexed": true,
          "internalType": "address",
          "name": "contractAddress",
          "type": "address"
        },
        {
          "indexed": false,
          "internalType": "bool",
          "name": "authorized",
          "type": "bool"
        }
      ],
      "name": "ContractAuthorized",
      "type": "event"
    },
    {
      "anonymous": false,
      "inputs": [
        {
          "indexed": true,
          "internalType": "address",
          "name": "organizer",
          "type": "address"
        },
        {
          "indexed": false,
          "internalType": "string",
          "name": "verificationLevel",
          "type": "string"
        }
      ],
      "name": "OrganizerVerified",
      "type": "event"
    },
    {
      "anonymous": false,
      "inputs": [
        {
          "indexed": false,
          "internalType": "address",
          "name": "account",
          "type": "address"
        }
      ],
      "name": "Paused",
      "type": "event"
    },
    {
      "anonymous": false,
      "inputs": [
        {
          "indexed": true,
          "internalType": "bytes32",
          "name": "role",
          "type": "bytes32"
        },
        {
          "indexed": true,
          "internalType": "bytes32",
          "name": "previousAdminRole",
          "type": "bytes32"
        },
        {
          "indexed": true,
          "internalType": "bytes32",
          "name": "newAdminRole",
          "type": "bytes32"
        }
      ],
      "name": "RoleAdminChanged",
      "type": "event"
    },
    {
      "anonymous": false,
      "inputs": [
        {
          "indexed": true,
          "internalType": "bytes32",
          "name": "role",
          "type": "bytes32"
        },
        {
          "indexed": true,
          "internalType": "address",
          "name": "account",
          "type": "address"
        },
        {
          "indexed": true,
          "internalType": "address",
          "name": "sender",
          "type": "address"
        }
      ],
      "name": "RoleGranted",
      "type": "event"
    },
    {
      "anonymous": false,
      "inputs": [
        {
          "indexed": true,
          "internalType": "bytes32",
          "name": "role",
          "type": "bytes32"
        },
        {
          "indexed": true,
          "internalType": "address",
          "name": "account",
          "type": "address"
        },
        {
          "indexed": false,
          "internalType": "uint256",
          "name": "expiryTime",
          "type": "uint256"
        }
      ],
      "name": "RoleGrantedWithExpiry",
      "type": "event"
    },
    {
      "anonymous": false,
      "inputs": [
        {
          "indexed": true,
          "internalType": "bytes32",
          "name": "role",
          "type": "bytes32"
        },
        {
          "indexed": true,
          "internalType": "address",
          "name": "account",
          "type": "address"
        },
        {
          "indexed": true,
          "internalType": "address",
          "name": "sender",
          "type": "address"
        }
      ],
      "name": "RoleRevoked",
      "type": "event"
    },
    {
      "anonymous": false,
      "inputs": [
        {
          "indexed": false,
          "internalType": "address",
          "name": "account",
          "type": "address"
        }
      ],
      "name": "Unpaused",
      "type": "event"
    },
    {
      "anonymous": false,
      "inputs": [
        {
          "indexed": true,
          "internalType": "address",
          "name": "user",
          "type": "address"
        },
        {
          "indexed": false,
          "internalType": "uint256",
          "name": "timestamp",
          "type": "uint256"
        }
      ],
      "name": "UserRegistered",
      "type": "event"
    },
    {
      "anonymous": false,
      "inputs": [
        {
          "indexed": true,
          "internalType": "address",
          "name": "user",
          "type": "address"
        },
        {
          "indexed": false,
          "internalType": "enum EventVexAccessControl.UserStatus",
          "name": "oldStatus",
          "type": "uint8"
        },
        {
          "indexed": false,
          "internalType": "enum EventVexAccessControl.UserStatus",
          "name": "newStatus",
          "type": "uint8"
        }
      ],
      "name": "UserStatusChanged",
      "type": "event"
    },
    {
      "inputs": [],
      "name": "CONTRACT_MANAGER_ROLE",
      "outputs": [
        {
          "internalType": "bytes32",
          "name": "",
          "type": "bytes32"
        }
      ],
      "stateMutability": "view",
      "type": "function"
    },
    {
      "inputs": [],
      "name": "DEFAULT_ADMIN_ROLE",
      "outputs": [
        {
          "internalType": "bytes32",
          "name": "",
          "type": "bytes32"
        }
      ],
      "stateMutability": "view",
      "type": "function"
    },
    {
      "inputs": [],
      "name": "FEE_MANAGER_ROLE",
      "outputs": [
        {
          "internalType": "bytes32",
          "name": "",
          "type": "bytes32"
        }
      ],
      "stateMutability": "view",
      "type": "function"
    },
    {
      "inputs": [],
      "name": "MODERATOR_ROLE",
      "outputs": [
        {
          "internalType": "bytes32",
          "name": "",
          "type": "bytes32"
        }
      ],
      "stateMutability": "view",
      "type": "function"
    },
    {
      "inputs": [],
      "name": "ORGANIZER_ROLE",
      "outputs": [
        {
          "internalType": "bytes32",
          "name": "",
          "type": "bytes32"
        }
      ],
      "stateMutability": "view",
      "type": "function"
    },
    {
      "inputs": [],
      "name": "PAUSER_ROLE",
      "outputs": [
        {
          "internalType": "bytes32",
          "name": "",
          "type": "bytes32"
        }
      ],
      "stateMutability": "view",
      "type": "function"
    },
    {
      "inputs": [],
      "name": "PLATFORM_ADMIN_ROLE",
      "outputs": [
        {
          "internalType": "bytes32",
          "name": "",
          "type": "bytes32"
        }
      ],
      "stateMutability": "view",
      "type": "function"
    },
    {
      "inputs": [],
      "name": "VERIFIED_ORGANIZER_ROLE",
      "outputs": [
        {
          "internalType": "bytes32",
          "name": "",
          "type": "bytes32"
        }
      ],
      "stateMutability": "view",
      "type": "function"
    },
    {
      "inputs": [
        {
          "internalType": "address",
          "name": "contractAddress",
          "type": "address"
        },
        {
          "internalType": "bool",
          "name": "authorized",
          "type": "bool"
        }
      ],
      "name": "authorizeContract",
      "outputs": [],
      "stateMutability": "nonpayable",
      "type": "function"
    },
    {
      "inputs": [
        {
          "internalType": "address",
          "name": "",
          "type": "address"
        }
      ],
      "name": "authorizedContracts",
      "outputs": [
        {
          "internalType": "bool",
          "name": "",
          "type": "bool"
        }
      ],
      "stateMutability": "view",
      "type": "function"
    },
    {
      "inputs": [
        {
          "internalType": "bytes32",
          "name": "role",
          "type": "bytes32"
        },
        {
          "internalType": "address[]",
          "name": "accounts",
          "type": "address[]"
        }
      ],
      "name": "batchGrantRole",
      "outputs": [],
      "stateMutability": "nonpayable",
      "type": "function"
    },
    {
      "inputs": [
        {
          "internalType": "bytes32",
          "name": "role",
          "type": "bytes32"
        },
        {
          "internalType": "address[]",
          "name": "accounts",
          "type": "address[]"
        }
      ],
      "name": "batchRevokeRole",
      "outputs": [],
      "stateMutability": "nonpayable",
      "type": "function"
    },
    {
      "inputs": [
        {
          "internalType": "address",
          "name": "user",
          "type": "address"
        }
      ],
      "name": "canCreateEvents",
      "outputs": [
        {
          "internalType": "bool",
          "name": "",
          "type": "bool"
        }
      ],
      "stateMutability": "view",
      "type": "function"
    },
    {
      "inputs": [
        {
          "internalType": "address",
          "name": "user",
          "type": "address"
        }
      ],
      "name": "canPurchaseTickets",
      "outputs": [
        {
          "internalType": "bool",
          "name": "",
          "type": "bool"
        }
      ],
      "stateMutability": "view",
      "type": "function"
    },
    {
      "inputs": [
        {
          "internalType": "address",
          "name": "user",
          "type": "address"
        }
      ],
      "name": "canResaleTickets",
      "outputs": [
        {
          "internalType": "bool",
          "name": "",
          "type": "bool"
        }
      ],
      "stateMutability": "view",
      "type": "function"
    },
    {
      "inputs": [
        {
          "internalType": "address",
          "name": "user",
          "type": "address"
        },
        {
          "internalType": "enum EventVexAccessControl.UserStatus",
          "name": "newStatus",
          "type": "uint8"
        }
      ],
      "name": "changeUserStatus",
      "outputs": [],
      "stateMutability": "nonpayable",
      "type": "function"
    },
    {
      "inputs": [],
      "name": "emergencyPause",
      "outputs": [],
      "stateMutability": "nonpayable",
      "type": "function"
    },
    {
      "inputs": [
        {
          "internalType": "bytes32",
          "name": "role",
          "type": "bytes32"
        }
      ],
      "name": "getRoleAdmin",
      "outputs": [
        {
          "internalType": "bytes32",
          "name": "",
          "type": "bytes32"
        }
      ],
      "stateMutability": "view",
      "type": "function"
    },
    {
      "inputs": [
        {
          "internalType": "address",
          "name": "account",
          "type": "address"
        },
        {
          "internalType": "bytes32",
          "name": "role",
          "type": "bytes32"
        }
      ],
      "name": "getRoleGrantedAt",
      "outputs": [
        {
          "internalType": "uint256",
          "name": "",
          "type": "uint256"
        }
      ],
      "stateMutability": "view",
      "type": "function"
    },
    {
      "inputs": [
        {
          "internalType": "address",
          "name": "user",
          "type": "address"
        }
      ],
      "name": "getUserStats",
      "outputs": [
        {
          "internalType": "uint256",
          "name": "eventsCreated",
          "type": "uint256"
        },
        {
          "internalType": "uint256",
          "name": "ticketsPurchased",
          "type": "uint256"
        },
        {
          "internalType": "uint256",
          "name": "accountAge",
          "type": "uint256"
        },
        {
          "internalType": "uint256",
          "name": "lastActivity",
          "type": "uint256"
        }
      ],
      "stateMutability": "view",
      "type": "function"
    },
    {
      "inputs": [
        {
          "internalType": "address",
          "name": "user",
          "type": "address"
        }
      ],
      "name": "getUserVerificationLevel",
      "outputs": [
        {
          "internalType": "string",
          "name": "",
          "type": "string"
        }
      ],
      "stateMutability": "view",
      "type": "function"
    },
    {
      "inputs": [
        {
          "internalType": "address",
          "name": "organizer",
          "type": "address"
        },
        {
          "internalType": "string",
          "name": "metadata",
          "type": "string"
        }
      ],
      "name": "grantOrganizerRole",
      "outputs": [],
      "stateMutability": "nonpayable",
      "type": "function"
    },
    {
      "inputs": [
        {
          "internalType": "bytes32",
          "name": "role",
          "type": "bytes32"
        },
        {
          "internalType": "address",
          "name": "account",
          "type": "address"
        }
      ],
      "name": "grantRole",
      "outputs": [],
      "stateMutability": "nonpayable",
      "type": "function"
    },
    {
      "inputs": [
        {
          "internalType": "bytes32",
          "name": "role",
          "type": "bytes32"
        },
        {
          "internalType": "address",
          "name": "account",
          "type": "address"
        }
      ],
      "name": "hasRole",
      "outputs": [
        {
          "internalType": "bool",
          "name": "",
          "type": "bool"
        }
      ],
      "stateMutability": "view",
      "type": "function"
    },
    {
      "inputs": [
        {
          "internalType": "address",
          "name": "user",
          "type": "address"
        }
      ],
      "name": "incrementUserEvents",
      "outputs": [],
      "stateMutability": "nonpayable",
      "type": "function"
    },
    {
      "inputs": [
        {
          "internalType": "address",
          "name": "user",
          "type": "address"
        }
      ],
      "name": "incrementUserTickets",
      "outputs": [],
      "stateMutability": "nonpayable",
      "type": "function"
    },
    {
      "inputs": [
        {
          "internalType": "address",
          "name": "contractAddress",
          "type": "address"
        }
      ],
      "name": "isAuthorizedContract",
      "outputs": [
        {
          "internalType": "bool",
          "name": "",
          "type": "bool"
        }
      ],
      "stateMutability": "view",
      "type": "function"
    },
    {
      "inputs": [
        {
          "internalType": "address",
          "name": "user",
          "type": "address"
        }
      ],
      "name": "isVerifiedOrganizer",
      "outputs": [
        {
          "internalType": "bool",
          "name": "",
          "type": "bool"
        }
      ],
      "stateMutability": "view",
      "type": "function"
    },
    {
      "inputs": [
        {
          "internalType": "address",
          "name": "",
          "type": "address"
        }
      ],
      "name": "organizerMetadata",
      "outputs": [
        {
          "internalType": "string",
          "name": "",
          "type": "string"
        }
      ],
      "stateMutability": "view",
      "type": "function"
    },
    {
      "inputs": [],
      "name": "paused",
      "outputs": [
        {
          "internalType": "bool",
          "name": "",
          "type": "bool"
        }
      ],
      "stateMutability": "view",
      "type": "function"
    },
    {
      "inputs": [],
      "name": "registerUser",
      "outputs": [],
      "stateMutability": "nonpayable",
      "type": "function"
    },
    {
      "inputs": [
        {
          "internalType": "bytes32",
          "name": "role",
          "type": "bytes32"
        },
        {
          "internalType": "address",
          "name": "callerConfirmation",
          "type": "address"
        }
      ],
      "name": "renounceRole",
      "outputs": [],
      "stateMutability": "nonpayable",
      "type": "function"
    },
    {
      "inputs": [
        {
          "internalType": "bytes32",
          "name": "role",
          "type": "bytes32"
        },
        {
          "internalType": "address",
          "name": "account",
          "type": "address"
        }
      ],
      "name": "revokeRole",
      "outputs": [],
      "stateMutability": "nonpayable",
      "type": "function"
    },
    {
      "inputs": [
        {
          "internalType": "address",
          "name": "",
          "type": "address"
        },
        {
          "internalType": "bytes32",
          "name": "",
          "type": "bytes32"
        }
      ],
      "name": "roleGrantedAt",
      "outputs": [
        {
          "internalType": "uint256",
          "name": "",
          "type": "uint256"
        }
      ],
      "stateMutability": "view",
      "type": "function"
    },
    {
      "inputs": [
        {
          "internalType": "bytes4",
          "name": "interfaceId",
          "type": "bytes4"
        }
      ],
      "name": "supportsInterface",
      "outputs": [
        {
          "internalType": "bool",
          "name": "",
          "type": "bool"
        }
      ],
      "stateMutability": "view",
      "type": "function"
    },
    {
      "inputs": [],
      "name": "unpause",
      "outputs": [],
      "stateMutability": "nonpayable",
      "type": "function"
    },
    {
      "inputs": [
        {
          "internalType": "address",
          "name": "user",
          "type": "address"
        }
      ],
      "name": "updateUserActivity",
      "outputs": [],
      "stateMutability": "nonpayable",
      "type": "function"
    },
    {
      "inputs": [
        {
          "internalType": "address",
          "name": "",
          "type": "address"
        }
      ],
      "name": "userProfiles",
      "outputs": [
        {
          "internalType": "enum EventVexAccessControl.UserStatus",
          "name": "status",
          "type": "uint8"
        },
        {
          "internalType": "uint256",
          "name": "createdAt",
          "type": "uint256"
        },
        {
          "internalType": "uint256",
          "name": "lastActivity",
          "type": "uint256"
        },
        {
          "internalType": "uint256",
          "name": "eventsCreated",
          "type": "uint256"
        },
        {
          "internalType": "uint256",
          "name": "ticketsPurchased",
          "type": "uint256"
        },
        {
          "internalType": "bool",
          "name": "isVerified",
          "type": "bool"
        },
        {
          "internalType": "string",
          "name": "verificationLevel",
          "type": "string"
        }
      ],
      "stateMutability": "view",
      "type": "function"
    },
    {
      "inputs": [
        {
          "internalType": "address",
          "name": "organizer",
          "type": "address"
        },
        {
          "internalType": "string",
          "name": "verificationLevel",
          "type": "string"
        }
      ],
      "name": "verifyOrganizer",
      "outputs": [],
      "stateMutability": "nonpayable",
      "type": "function"
    }
  ],
  "bytecode": "0x604060808152346200017f5760018080556200001b3362000184565b506200002733620001e5565b50620000333362000251565b507f4d2e7a1e3f5dd6e203f087b15756ccf0e4ccd947fe1b639a38540089a1e47f6390600090828252816020528084832001928354936000805160206200247083398151915294858092557fbd79b86ffe0ab8e8776151514217cd7cacd52c909f66475c3af44e129f0b00ff92838680a4837f0e950389b2a7da1c8778f82de260f5ed6495c89d63058d8b686ae75cb1aa46f88085528387862001908282549255838680a4837f71f3d55856e4058ed06ee057d79ada615f65cdf5f9ee88181b914225088f834f8085528387862001908282549255838680a4837f6c0757dc3e6b28b2580c03fd9e96c274acf4f99d91fbec9b418fa1d70604ff1c8085528387862001908282549255838680a47f8135f02737a6b32709c1f229001b55183df0d6abcb3022e8bae091ad43fd9e6d918284528584200192848454945580a45161203c9081620003d48239f35b600080fd5b6200018f81620002ce565b620001df576001600160a01b031660008181526000805160206200249083398151915260205260408120805460ff19166001179055339190600080516020620024108339815191528180a4600190565b50600090565b620001f08162000325565b620001df576001600160a01b031660008181526000805160206200243083398151915260205260408120805460ff191660011790553391906000805160206200247083398151915290600080516020620024108339815191529080a4600190565b6200025c816200037c565b620001df576001600160a01b031660008181526000805160206200245083398151915260205260408120805460ff191660011790553391907f65d7a28e3265b37a6474929f336521b332c1681b933f6cb9f3376673440d862a90600080516020620024108339815191529080a4600190565b60ff60025416806200031c575b8062000313575b620001df576001600160a01b0316600090815260008051602062002490833981519152602052604090205460ff1690565b506000620002e2565b506001620002db565b60ff600254168062000373575b806200036a575b620001df576001600160a01b0316600090815260008051602062002430833981519152602052604090205460ff1690565b50600162000339565b50600162000332565b60ff6002541680620003ca575b80620003c1575b620001df576001600160a01b0316600090815260008051602062002450833981519152602052604090205460ff1690565b50600162000390565b5060006200038956fe6040608081526004908136101561001557600080fd5b600091823560e01c908162c5fd241461139b57816301ffc9a71461134557816305abad981461130657816305db2f41146112cb57816306d9b0881461126457816318663d0a1461123e578163214b570d146107c557816324662fe9146111d1578163248a9ca3146111a757816324af60321461114b5781632f2ff15d14611121578163332d56d71461108557816336568abe1461103f5781633f4ba83a14610fd557816346b5cb5914610f4c5781634d3820eb14610d265781634e43603a14610c3c57816351858e2714610bd05781635c975abb14610bac5781635cbeb13f14610add57816366d0ead314610ab2578163685d34ff14610a775781636e79eb1e14610a515781636f39feec146109ef5781636fb146791461096d5781637909cb5914610932578163797669c9146108f7578163804ff8f1146108a55781638820bc7d1461086a57816391d148541461083f5781639d28b50614610804578163a03ccad9146107c5578163a217fddf146107aa578163a6115df71461077b578163a778dcd814610572578163a95071861461028c578163d547741f1461024957508063d5b9221b1461020c5763e63ab1e9146101cf57600080fd5b34610208578160031936011261020857602090517f65d7a28e3265b37a6474929f336521b332c1681b933f6cb9f3376673440d862a8152f35b5080fd5b50346102085760203660031901126102085760209160ff9082906001600160a01b03610236611492565b1681526005855220541690519015158152f35b91905034610288578060031936011261028857610284913561027f600161026e6114ad565b938387528660205286200154611790565b61196e565b5080f35b8280fd5b919050346102885761029d36611697565b9192906102a8611742565b60018060a01b03841691828752602092600384528360019687848b200154156103e5575b6102d69150611862565b508088528684528188207f4d2e7a1e3f5dd6e203f087b15756ccf0e4ccd947fe1b639a38540089a1e47f6389528452428289205587526006835286209467ffffffffffffffff84116103d25750610337836103318754611503565b87611a2b565b8591601f841160011461037157509282939183928794610366575b50501b916000199060031b1c191617905580f35b013592503880610352565b9183601f1981168789528489209489905b888383106103b8575050501061039e575b505050811b01905580f35b0135600019600384901b60f8161c19169055388080610393565b868601358855909601959384019387935090810190610382565b634e487b7160e01b875260419052602486fd5b83516103f08161153d565b8a81528a8a848301428152878401428152606085019184835260808601938585528a60a088019680885260036104246119e1565b9b60c08b019c8d528d8352522096519081101561055c57918e8796949261045161047f979560069a611a13565b5190870155516002860155516003850155518d840155511515600583019060ff801983541691151516179055565b01915191825167ffffffffffffffff8111610549576104a8816104a28454611503565b84611a2b565b878c601f83116001146104e757906102d695836104dc575b5050600019600383901b1c1916908a1b1790555b8591506102cc565b0151905038806104c0565b8b9291601f1983168583528b8320925b8c82821061053357505096836102d6981061051a575b505050811b0190556104d4565b015160001960f88460031b161c1916905538808061050d565b838a015185558f969094019392830192016104f7565b634e487b7160e01b8c5260418b5260248cfd5b5050634e487b7160e01b8f525060218d5260248efd5b839150346102085761058336611697565b9194909261058f611742565b61059886611da6565b156107465760018060a01b038616938486526020916003835283872097600660058a019960019a8b60ff198254161790550167ffffffffffffffff8711610733576105ed876105e78354611503565b83611a2b565b88601f88116001146106aa5787949285949285808d9e610645957f67191fa7defb5ea3a81715dca2956fb38792fe2df988e9d9469bd1a3eb67d9779e9f9361069f575b501b906000198860031b1c19161790556117c0565b50888a5284528489207f0e950389b2a7da1c8778f82de260f5ed6495c89d63058d8b686ae75cb1aa46f88a52845242858a20558451958487958652850152848401378181018301879052601f01601f19168101030190a280f35b880135925038610630565b818a52858a2090601f1989168b5b81811061071e5750927f67191fa7defb5ea3a81715dca2956fb38792fe2df988e9d9469bd1a3eb67d9779a9b9c610645938b9896938980999710610704575b505086811b0190556117c0565b87013560001960038a901b60f8161c191690558e806106f7565b878301358455928d01929188019188016106b8565b634e487b7160e01b895260418352602489fd5b6020606492519162461bcd60e51b8352820152601060248201526f2737ba1030b71037b933b0b734bd32b960811b6044820152fd5b505034610208576020366003190112610208576020906107a161079c611492565b611b2a565b90519015158152f35b50503461020857816003193601126102085751908152602090f35b90503461028857816003193601126102885760209282916001600160a01b036107ec611492565b16825284528181206024358252845220549051908152f35b505034610208578160031936011261020857602090517f8135f02737a6b32709c1f229001b55183df0d6abcb3022e8bae091ad43fd9e6d8152f35b828434610867578160031936011261086757506107a16020926108606114ad565b9035611f95565b80fd5b505034610208578160031936011261020857602090517f0e950389b2a7da1c8778f82de260f5ed6495c89d63058d8b686ae75cb1aa46f88152f35b505034610208576020366003190112610208576108f3916108e09082906001600160a01b036108d2611492565b16815260066020522061156f565b90519182916020835260208301906114c3565b0390f35b505034610208578160031936011261020857602090517f71f3d55856e4058ed06ee057d79ada615f65cdf5f9ee88181b914225088f834f8152f35b505034610208578160031936011261020857602090517f4d2e7a1e3f5dd6e203f087b15756ccf0e4ccd947fe1b639a38540089a1e47f638152f35b90503461028857602036600319011261028857610988611492565b338452600560205261099f60ff8486205416611a7f565b6001600160a01b03168084526003602052828420600101549091906109c5901515611ac3565b8184526003602052828420016109db8154611b05565b905582526003602052600242918320015580f35b505034610208576001610a19610a0436611647565b92919390948487528660205286200154611790565b835b818110610a26578480f35b80610a46610a40610a3b610a4c948689611d09565b611d2f565b8561196e565b50611b05565b610a1b565b505034610208576020366003190112610208576020906107a1610a72611492565b611bd4565b505034610208578160031936011261020857602090517f5246556c0ab216b5b325ad7c539bfbd1a07c768773cdf810fecd3c3375c274078152f35b5050346102085760203660031901126102085760209160ff9082906001600160a01b03610236611492565b905034610288578160031936011261028857610af7611492565b916024359283151592838503610ba857610b1033611e6c565b15610b6b575091602091610b637f3213ab8ec2ed122402f038736b41878b69ae9f61f49a7edd0666bce891d29fc99460018060a01b031695868852600585528288209060ff801983541691151516179055565b51908152a280f35b60449083519063e2517d3f60e01b825233908201527f8135f02737a6b32709c1f229001b55183df0d6abcb3022e8bae091ad43fd9e6d6024820152fd5b8580fd5b50503461020857816003193601126102085760209060ff6002541690519015158152f35b905034610288578260031936011261028857610bea6116f4565b6002549060ff8216610c2e575060ff1916600117600255513381527f62e78cea01bee320cd4e420270b5ea74000d11b0c9f74754ebdbfc544b05a25890602090a180f35b825163d93c066560e01b8152fd5b828434610867576020366003190112610867576001600160a01b03610c5f611492565b168152600360205281812091805190610c778261153d565b610c8560ff855416836119d5565b600184015492602083019384526002850154928281019384526003860154906060810191825260c0610cd360068a8a015499608085019a8b5260ff600582015416151560a08601520161156f565b91015251945193518015610d1b57420390428211610d08575060809550915b5192815194855260208501528301526060820152f35b634e487b7160e01b815260118752602490fd5b506080955091610cf2565b838334610208578160031936011261020857338252602090600382526001808285200154610f0957815190610d5a8261153d565b8482528382019142835283810142815260608201878152608083019088825260a0840192898452610d896119e1565b9660c08601978852338b5260038a52888b2095518c811015610ef6579186959391610dba610de89694600699611a13565b5188870155516002860155516003850155518a840155511515600583019060ff801983541691151516179055565b01915180519667ffffffffffffffff88116103d25750610e1287610e0c8554611503565b85611a2b565b8490601f8811600114610e7757968092819288997fe29d35093005f4d575e1003753426b57a7f64378ba73332eef9c6ccc2b8decd6989994610e6c575b50501b916000199060031b1c19161790555b51914283523392a280f35b015192508980610e4f565b838752858720909791601f198316885b818110610ee1575098837fe29d35093005f4d575e1003753426b57a7f64378ba73332eef9c6ccc2b8decd698999a10610ec8575b505050811b019055610e61565b015160001960f88460031b161c19169055878080610ebb565b8a830151845592850192918801918801610e87565b634e487b7160e01b8c5260218d5260248cfd5b815162461bcd60e51b8152808601849052601760248201527f5573657220616c726561647920726567697374657265640000000000000000006044820152606490fd5b8391503461020857610f5d36611647565b94919092818552602090858252610f7960018588200154611790565b855b878110610f86578680f35b80610fa1610f9b610a3b610fd0948c8b611d09565b866118fe565b506001600160a01b03610fb8610a3b838c8b611d09565b16885282845285882085895284524286892055611b05565b610f7b565b905034610288578260031936011261028857610fef6116f4565b6002549060ff821615611031575060ff1916600255513381527f5db9ee0a495bf2e6ff9c91a7834c1ba4fdd244a5e8aa4e537bd38aeae4b073aa90602090a180f35b8251638dfc202b60e01b8152fd5b8383346102085780600319360112610208576110596114ad565b90336001600160a01b03831603611076575061028491923561196e565b5163334bd91960e11b81528390fd5b905034610288576020366003190112610288576110f7926108f3919083906001600160a01b036110b3611492565b16815260036020522060ff815416936001820154926002830154600384015491840154926110eb600660ff600588015416960161156f565b958151998a809a611624565b602089015287015260608601526080850152151560a084015260e060c084015260e08301906114c3565b919050346102885780600319360112610288576102849135611146600161026e6114ad565b6118fe565b505034610208576020366003190112610208579060209161116a611492565b9161117483611d43565b9283611185575b5050519015158152f35b6001600160a01b03168152600384528190206005015460ff169150388061117b565b90503461028857602036600319011261028857816020936001923581528085522001549051908152f35b505034610208576020366003190112610208576111ec611492565b338352600560205261120360ff8385205416611a7f565b6001600160a01b0316808352600360205281832060010154611226901515611ac3565b80835260036020526003828420016109db8154611b05565b505034610208576020366003190112610208576020906107a161125f611492565b611c62565b5050346102085760203660031901126102085761127f611492565b338352600560205261129660ff8385205416611a7f565b6001600160a01b03168083526003602052818320600101546112b9901515611ac3565b82526003602052600242918320015580f35b505034610208578160031936011261020857602090517f6c0757dc3e6b28b2580c03fd9e96c274acf4f99d91fbec9b418fa1d70604ff1c8152f35b505034610208576020366003190112610208576108f3916108e09060069083906001600160a01b03611336611492565b1681526003602052200161156f565b90503461028857602036600319011261028857359063ffffffff60e01b82168092036102885760209250637965db0b60e01b821491821561138a575b50519015158152f35b6301ffc9a760e01b14915038611381565b919050346102885780600319360112610288576113b6611492565b602435928084101561148e576113cb33611e09565b1561145157506001600160a01b031680845260036020528184206001015490927fa0adb88d5bee89caf0fd0b45645f6f3ba4628c335551aab4b36f830a09c1c91f9291611419901515611ac3565b838552600360205261144d828620916114378160ff85541694611a13565b61144384518094611624565b6020830190611624565ba280f35b60449083519063e2517d3f60e01b825233908201527f71f3d55856e4058ed06ee057d79ada615f65cdf5f9ee88181b914225088f834f6024820152fd5b8480fd5b600435906001600160a01b03821682036114a857565b600080fd5b602435906001600160a01b03821682036114a857565b919082519283825260005b8481106114ef575050826000602080949584010152601f8019910116010190565b6020818301810151848301820152016114ce565b90600182811c92168015611533575b602083101461151d57565b634e487b7160e01b600052602260045260246000fd5b91607f1691611512565b60e0810190811067ffffffffffffffff82111761155957604052565b634e487b7160e01b600052604160045260246000fd5b906040519160009080549061158382611503565b90818652600192838116908160001461160357506001146115c6575b505050829003601f01601f1916820167ffffffffffffffff81118382101761155957604052565b9092506000526020918260002091836000935b8385106115ef575050505083010138808061159f565b8054888601830152930192849082016115d9565b92935050506020925060ff191682850152151560051b83010138808061159f565b9060048210156116315752565b634e487b7160e01b600052602160045260246000fd5b60406003198201126114a8576004359160243567ffffffffffffffff928382116114a857806023830112156114a85781600401359384116114a85760248460051b830101116114a8576024019190565b60406003198201126114a8576004356001600160a01b03811681036114a8579160243567ffffffffffffffff928382116114a857806023830112156114a85781600401359384116114a857602484830101116114a8576024019190565b6116fd33611ecf565b1561170457565b60405163e2517d3f60e01b81523360048201527f65d7a28e3265b37a6474929f336521b332c1681b933f6cb9f3376673440d862a6024820152604490fd5b61174b33611f32565b1561175257565b60405163e2517d3f60e01b81523360048201527f5246556c0ab216b5b325ad7c539bfbd1a07c768773cdf810fecd3c3375c274076024820152604490fd5b61179a3382611f95565b156117a25750565b6044906040519063e2517d3f60e01b82523360048301526024820152fd5b6117c981611d43565b61185c576001600160a01b031660008181527f7d809ac4cc57274580da3fcfc515a2ba836834f70249a7b1e7aa3b3c3b5fc0a260205260408120805460ff191660011790553391907f0e950389b2a7da1c8778f82de260f5ed6495c89d63058d8b686ae75cb1aa46f8907f2f8788117e7eff1d82e926ec794901d17c78024a50270940304540a733656f0d9080a4600190565b50600090565b61186b81611da6565b61185c576001600160a01b031660008181527f7fb3b48246c61d3fa2fb8337e6c11c6638daafa0fe762bfbe6c0193682cd7efe60205260408120805460ff191660011790553391907f4d2e7a1e3f5dd6e203f087b15756ccf0e4ccd947fe1b639a38540089a1e47f63907f2f8788117e7eff1d82e926ec794901d17c78024a50270940304540a733656f0d9080a4600190565b906119098183611f95565b611967576000828152602081815260408083206001600160a01b03909416808452939091528120805460ff191660011790553392907f2f8788117e7eff1d82e926ec794901d17c78024a50270940304540a733656f0d9080a4600190565b5050600090565b906119798183611f95565b15611967576000828152602081815260408083206001600160a01b03909416808452939091528120805460ff191690553392907ff6391f5c32d9c69d2a47ea670b442974b53935d1edc7fd64eb21e047a839171b9080a4600190565b60048210156116315752565b604051906040820182811067ffffffffffffffff821117611559576040526005825264626173696360d81b6020830152565b9060048110156116315760ff80198354169116179055565b90601f8111611a3957505050565b600091825260208220906020601f850160051c83019410611a75575b601f0160051c01915b828110611a6a57505050565b818155600101611a5e565b9092508290611a55565b15611a8657565b60405162461bcd60e51b8152602060048201526015602482015274155b985d5d1a1bdc9a5e99590818dbdb9d1c9858dd605a1b6044820152606490fd5b15611aca57565b60405162461bcd60e51b8152602060048201526013602482015272155cd95c881b9bdd081c9959da5cdd195c9959606a1b6044820152606490fd5b6000198114611b145760010190565b634e487b7160e01b600052601160045260246000fd5b60018060a01b0381166000526003602052604060002060405190611b4d8261153d565b611b5b60ff825416836119d5565b611ba060066001830154926020850193845260028101546040860152600381015460608601526004810154608086015260ff600582015416151560a08601520161156f565b60c08301525115908115611bc0575b5061185c57611bbd90611da6565b90565b905051600481101561163157151538611baf565b60018060a01b03166000526003602052604060002060405190611bf68261153d565b611c0460ff825416836119d5565b611c4960066001830154926020850193845260028101546040860152600381015460608601526004810154608086015260ff600582015416151560a08601520161156f565b60c0830152511561185c57516004811015611631571590565b60018060a01b03166000526003602052604060002060405190611c848261153d565b611c9260ff825416836119d5565b611cd760066001830154926020850193845260028101546040860152600381015460608601526004810154608086015260ff600582015416151560a08601520161156f565b60c08301525115908115611cf5575b50611cf057600190565b600090565b905051600481101561163157151538611ce6565b9190811015611d195760051b0190565b634e487b7160e01b600052603260045260246000fd5b356001600160a01b03811681036114a85790565b60ff6002541680611d9e575b80611d96575b61185c576001600160a01b031660009081527f7d809ac4cc57274580da3fcfc515a2ba836834f70249a7b1e7aa3b3c3b5fc0a2602052604090205460ff1690565b506001611d55565b506001611d4f565b60ff6002541680611e01575b80611df9575b61185c576001600160a01b031660009081527f7fb3b48246c61d3fa2fb8337e6c11c6638daafa0fe762bfbe6c0193682cd7efe602052604090205460ff1690565b506001611db8565b506001611db2565b60ff6002541680611e64575b80611e5c575b61185c576001600160a01b031660009081527ff179aafcc4ff8137fca1ef3b9ec4d165f87016ba123e7973fba770bc55e240e3602052604090205460ff1690565b506001611e1b565b506001611e15565b60ff6002541680611ec7575b80611ebf575b61185c576001600160a01b031660009081527f4daa746d9bbacd080ed27d6a2e549626a7928e2a9165031debc80c38f9a51509602052604090205460ff1690565b506001611e7e565b506001611e78565b60ff6002541680611f2a575b80611f22575b61185c576001600160a01b031660009081527ff7c9542c591017a21c74b6f3fab6263c7952fc0aaf9db4c22a2a04ddc7f8674f602052604090205460ff1690565b506001611ee1565b506000611edb565b60ff6002541680611f8d575b80611f85575b61185c576001600160a01b031660009081527f0790b0aaeb4157b4822815d95bf3d9318a1561c876c520e6cca704be6f4d63a6602052604090205460ff1690565b506001611f44565b506001611f3e565b60ff6002541680611fdc575b80611fd3575b61196757600052600060205260406000209060018060a01b031660005260205260ff6040600020541690565b50801515611fa7565b507f65d7a28e3265b37a6474929f336521b332c1681b933f6cb9f3376673440d862a811415611fa156fea26469706673582212200736646ff9e0063b798a5508271e88498ed0a425a05988a68724828ae53fcfdf64736f6c634300081400332f8788117e7eff1d82e926ec794901d17c78024a50270940304540a733656f0d0790b0aaeb4157b4822815d95bf3d9318a1561c876c520e6cca704be6f4d63a6f7c9542c591017a21c74b6f3fab6263c7952fc0aaf9db4c22a2a04ddc7f8674f5246556c0ab216b5b325ad7c539bfbd1a07c768773cdf810fecd3c3375c27407ad3228b676f7d3cd4284a5443f17f1962b36e491b30a40b2405849e597ba5fb5",
  "linkReferences": {},
  "deployedLinkReferences": {}
}