{
  "_format": "hh-sol-artifact-1",
  "contractName": "EventTicket",
  "sourceName": "contracts/src/core/EventTicket.sol",
  "abi": [
    {
      "inputs": [
        {
          "components": [
            {
              "internalType": "string",
              "name": "title",
              "type": "string"
            },
            {
              "internalType": "string",
              "name": "description",
              "type": "string"
            },
            {
              "internalType": "string",
              "name": "location",
              "type": "string"
            },
            {
              "internalType": "uint256",
              "name": "eventDate",
              "type": "uint256"
            },
            {
              "internalType": "uint256",
              "name": "ticketPrice",
              "type": "uint256"
            },
            {
              "internalType": "uint256",
              "name": "maxTickets",
              "type": "uint256"
            },
            {
              "internalType": "uint256",
              "name": "maxResalePrice",
              "type": "uint256"
            },
            {
              "internalType": "address",
              "name": "organizer",
              "type": "address"
            },
            {
              "internalType": "bool",
              "name": "isActive",
              "type": "bool"
            },
            {
              "internalType": "bool",
              "name": "isCancelled",
              "type": "bool"
            }
          ],
          "internalType": "struct EventTicket.EventInfo",
          "name": "_eventInfo",
          "type": "tuple"
        },
        {
          "internalType": "address",
          "name": "_organizer",
          "type": "address"
        },
        {
          "internalType": "address",
          "name": "_platformFeeRecipient",
          "type": "address"
        }
      ],
      "stateMutability": "nonpayable",
      "type": "constructor"
    },
    {
      "inputs": [],
      "name": "AccessControlBadConfirmation",
      "type": "error"
    },
    {
      "inputs": [
        {
          "internalType": "address",
          "name": "account",
          "type": "address"
        },
        {
          "internalType": "bytes32",
          "name": "neededRole",
          "type": "bytes32"
        }
      ],
      "name": "AccessControlUnauthorizedAccount",
      "type": "error"
    },
    {
      "inputs": [
        {
          "internalType": "address",
          "name": "sender",
          "type": "address"
        },
        {
          "internalType": "uint256",
          "name": "tokenId",
          "type": "uint256"
        },
        {
          "internalType": "address",
          "name": "owner",
          "type": "address"
        }
      ],
      "name": "ERC721IncorrectOwner",
      "type": "error"
    },
    {
      "inputs": [
        {
          "internalType": "address",
          "name": "operator",
          "type": "address"
        },
        {
          "internalType": "uint256",
          "name": "tokenId",
          "type": "uint256"
        }
      ],
      "name": "ERC721InsufficientApproval",
      "type": "error"
    },
    {
      "inputs": [
        {
          "internalType": "address",
          "name": "approver",
          "type": "address"
        }
      ],
      "name": "ERC721InvalidApprover",
      "type": "error"
    },
    {
      "inputs": [
        {
          "internalType": "address",
          "name": "operator",
          "type": "address"
        }
      ],
      "name": "ERC721InvalidOperator",
      "type": "error"
    },
    {
      "inputs": [
        {
          "internalType": "address",
          "name": "owner",
          "type": "address"
        }
      ],
      "name": "ERC721InvalidOwner",
      "type": "error"
    },
    {
      "inputs": [
        {
          "internalType": "address",
          "name": "receiver",
          "type": "address"
        }
      ],
      "name": "ERC721InvalidReceiver",
      "type": "error"
    },
    {
      "inputs": [
        {
          "internalType": "address",
          "name": "sender",
          "type": "address"
        }
      ],
      "name": "ERC721InvalidSender",
      "type": "error"
    },
    {
      "inputs": [
        {
          "internalType": "uint256",
          "name": "tokenId",
          "type": "uint256"
        }
      ],
      "name": "ERC721NonexistentToken",
      "type": "error"
    },
    {
      "inputs": [],
      "name": "EnforcedPause",
      "type": "error"
    },
    {
      "inputs": [],
      "name": "ExpectedPause",
      "type": "error"
    },
    {
      "inputs": [],
      "name": "ReentrancyGuardReentrantCall",
      "type": "error"
    },
    {
      "anonymous": false,
      "inputs": [
        {
          "indexed": true,
          "internalType": "address",
          "name": "owner",
          "type": "address"
        },
        {
          "indexed": true,
          "internalType": "address",
          "name": "approved",
          "type": "address"
        },
        {
          "indexed": true,
          "internalType": "uint256",
          "name": "tokenId",
          "type": "uint256"
        }
      ],
      "name": "Approval",
      "type": "event"
    },
    {
      "anonymous": false,
      "inputs": [
        {
          "indexed": true,
          "internalType": "address",
          "name": "owner",
          "type": "address"
        },
        {
          "indexed": true,
          "internalType": "address",
          "name": "operator",
          "type": "address"
        },
        {
          "indexed": false,
          "internalType": "bool",
          "name": "approved",
          "type": "bool"
        }
      ],
      "name": "ApprovalForAll",
      "type": "event"
    },
    {
      "anonymous": false,
      "inputs": [],
      "name": "EventCancelled",
      "type": "event"
    },
    {
      "anonymous": false,
      "inputs": [
        {
          "indexed": false,
          "internalType": "address",
          "name": "account",
          "type": "address"
        }
      ],
      "name": "Paused",
      "type": "event"
    },
    {
      "anonymous": false,
      "inputs": [
        {
          "indexed": true,
          "internalType": "uint256",
          "name": "tokenId",
          "type": "uint256"
        },
        {
          "indexed": true,
          "internalType": "address",
          "name": "recipient",
          "type": "address"
        },
        {
          "indexed": false,
          "internalType": "uint256",
          "name": "amount",
          "type": "uint256"
        }
      ],
      "name": "RefundIssued",
      "type": "event"
    },
    {
      "anonymous": false,
      "inputs": [
        {
          "indexed": true,
          "internalType": "bytes32",
          "name": "role",
          "type": "bytes32"
        },
        {
          "indexed": true,
          "internalType": "bytes32",
          "name": "previousAdminRole",
          "type": "bytes32"
        },
        {
          "indexed": true,
          "internalType": "bytes32",
          "name": "newAdminRole",
          "type": "bytes32"
        }
      ],
      "name": "RoleAdminChanged",
      "type": "event"
    },
    {
      "anonymous": false,
      "inputs": [
        {
          "indexed": true,
          "internalType": "bytes32",
          "name": "role",
          "type": "bytes32"
        },
        {
          "indexed": true,
          "internalType": "address",
          "name": "account",
          "type": "address"
        },
        {
          "indexed": true,
          "internalType": "address",
          "name": "sender",
          "type": "address"
        }
      ],
      "name": "RoleGranted",
      "type": "event"
    },
    {
      "anonymous": false,
      "inputs": [
        {
          "indexed": true,
          "internalType": "bytes32",
          "name": "role",
          "type": "bytes32"
        },
        {
          "indexed": true,
          "internalType": "address",
          "name": "account",
          "type": "address"
        },
        {
          "indexed": true,
          "internalType": "address",
          "name": "sender",
          "type": "address"
        }
      ],
      "name": "RoleRevoked",
      "type": "event"
    },
    {
      "anonymous": false,
      "inputs": [
        {
          "indexed": true,
          "internalType": "uint256",
          "name": "tokenId",
          "type": "uint256"
        },
        {
          "indexed": false,
          "internalType": "uint256",
          "name": "price",
          "type": "uint256"
        }
      ],
      "name": "TicketListedForResale",
      "type": "event"
    },
    {
      "anonymous": false,
      "inputs": [
        {
          "indexed": true,
          "internalType": "uint256",
          "name": "tokenId",
          "type": "uint256"
        },
        {
          "indexed": true,
          "internalType": "address",
          "name": "buyer",
          "type": "address"
        },
        {
          "indexed": false,
          "internalType": "uint256",
          "name": "seatNumber",
          "type": "uint256"
        },
        {
          "indexed": false,
          "internalType": "uint256",
          "name": "price",
          "type": "uint256"
        }
      ],
      "name": "TicketMinted",
      "type": "event"
    },
    {
      "anonymous": false,
      "inputs": [
        {
          "indexed": true,
          "internalType": "uint256",
          "name": "tokenId",
          "type": "uint256"
        },
        {
          "indexed": true,
          "internalType": "address",
          "name": "from",
          "type": "address"
        },
        {
          "indexed": true,
          "internalType": "address",
          "name": "to",
          "type": "address"
        },
        {
          "indexed": false,
          "internalType": "uint256",
          "name": "price",
          "type": "uint256"
        }
      ],
      "name": "TicketSold",
      "type": "event"
    },
    {
      "anonymous": false,
      "inputs": [
        {
          "indexed": true,
          "internalType": "uint256",
          "name": "tokenId",
          "type": "uint256"
        }
      ],
      "name": "TicketUnlisted",
      "type": "event"
    },
    {
      "anonymous": false,
      "inputs": [
        {
          "indexed": true,
          "internalType": "uint256",
          "name": "tokenId",
          "type": "uint256"
        },
        {
          "indexed": true,
          "internalType": "address",
          "name": "attendee",
          "type": "address"
        }
      ],
      "name": "TicketUsed",
      "type": "event"
    },
    {
      "anonymous": false,
      "inputs": [
        {
          "indexed": true,
          "internalType": "address",
          "name": "from",
          "type": "address"
        },
        {
          "indexed": true,
          "internalType": "address",
          "name": "to",
          "type": "address"
        },
        {
          "indexed": true,
          "internalType": "uint256",
          "name": "tokenId",
          "type": "uint256"
        }
      ],
      "name": "Transfer",
      "type": "event"
    },
    {
      "anonymous": false,
      "inputs": [
        {
          "indexed": false,
          "internalType": "address",
          "name": "account",
          "type": "address"
        }
      ],
      "name": "Unpaused",
      "type": "event"
    },
    {
      "inputs": [],
      "name": "DEFAULT_ADMIN_ROLE",
      "outputs": [
        {
          "internalType": "bytes32",
          "name": "",
          "type": "bytes32"
        }
      ],
      "stateMutability": "view",
      "type": "function"
    },
    {
      "inputs": [],
      "name": "ORGANIZER_ROLE",
      "outputs": [
        {
          "internalType": "bytes32",
          "name": "",
          "type": "bytes32"
        }
      ],
      "stateMutability": "view",
      "type": "function"
    },
    {
      "inputs": [],
      "name": "PAUSER_ROLE",
      "outputs": [
        {
          "internalType": "bytes32",
          "name": "",
          "type": "bytes32"
        }
      ],
      "stateMutability": "view",
      "type": "function"
    },
    {
      "inputs": [],
      "name": "VERIFIER_ROLE",
      "outputs": [
        {
          "internalType": "bytes32",
          "name": "",
          "type": "bytes32"
        }
      ],
      "stateMutability": "view",
      "type": "function"
    },
    {
      "inputs": [
        {
          "internalType": "address",
          "name": "to",
          "type": "address"
        },
        {
          "internalType": "uint256",
          "name": "tokenId",
          "type": "uint256"
        }
      ],
      "name": "approve",
      "outputs": [],
      "stateMutability": "nonpayable",
      "type": "function"
    },
    {
      "inputs": [
        {
          "internalType": "address",
          "name": "owner",
          "type": "address"
        }
      ],
      "name": "balanceOf",
      "outputs": [
        {
          "internalType": "uint256",
          "name": "",
          "type": "uint256"
        }
      ],
      "stateMutability": "view",
      "type": "function"
    },
    {
      "inputs": [
        {
          "internalType": "uint256",
          "name": "_tokenId",
          "type": "uint256"
        }
      ],
      "name": "buyResaleTicket",
      "outputs": [],
      "stateMutability": "payable",
      "type": "function"
    },
    {
      "inputs": [],
      "name": "cancelEvent",
      "outputs": [],
      "stateMutability": "nonpayable",
      "type": "function"
    },
    {
      "inputs": [],
      "name": "eventInfo",
      "outputs": [
        {
          "internalType": "string",
          "name": "title",
          "type": "string"
        },
        {
          "internalType": "string",
          "name": "description",
          "type": "string"
        },
        {
          "internalType": "string",
          "name": "location",
          "type": "string"
        },
        {
          "internalType": "uint256",
          "name": "eventDate",
          "type": "uint256"
        },
        {
          "internalType": "uint256",
          "name": "ticketPrice",
          "type": "uint256"
        },
        {
          "internalType": "uint256",
          "name": "maxTickets",
          "type": "uint256"
        },
        {
          "internalType": "uint256",
          "name": "maxResalePrice",
          "type": "uint256"
        },
        {
          "internalType": "address",
          "name": "organizer",
          "type": "address"
        },
        {
          "internalType": "bool",
          "name": "isActive",
          "type": "bool"
        },
        {
          "internalType": "bool",
          "name": "isCancelled",
          "type": "bool"
        }
      ],
      "stateMutability": "view",
      "type": "function"
    },
    {
      "inputs": [
        {
          "internalType": "uint256",
          "name": "tokenId",
          "type": "uint256"
        }
      ],
      "name": "getApproved",
      "outputs": [
        {
          "internalType": "address",
          "name": "",
          "type": "address"
        }
      ],
      "stateMutability": "view",
      "type": "function"
    },
    {
      "inputs": [],
      "name": "getAvailableSeats",
      "outputs": [
        {
          "internalType": "uint256[]",
          "name": "",
          "type": "uint256[]"
        }
      ],
      "stateMutability": "view",
      "type": "function"
    },
    {
      "inputs": [
        {
          "internalType": "bytes32",
          "name": "role",
          "type": "bytes32"
        }
      ],
      "name": "getRoleAdmin",
      "outputs": [
        {
          "internalType": "bytes32",
          "name": "",
          "type": "bytes32"
        }
      ],
      "stateMutability": "view",
      "type": "function"
    },
    {
      "inputs": [
        {
          "internalType": "uint256",
          "name": "_tokenId",
          "type": "uint256"
        }
      ],
      "name": "getTicketInfo",
      "outputs": [
        {
          "components": [
            {
              "internalType": "uint256",
              "name": "seatNumber",
              "type": "uint256"
            },
            {
              "internalType": "uint256",
              "name": "purchasePrice",
              "type": "uint256"
            },
            {
              "internalType": "uint256",
              "name": "purchaseTime",
              "type": "uint256"
            },
            {
              "internalType": "bool",
              "name": "isUsed",
              "type": "bool"
            },
            {
              "internalType": "bool",
              "name": "isForResale",
              "type": "bool"
            },
            {
              "internalType": "uint256",
              "name": "resalePrice",
              "type": "uint256"
            },
            {
              "internalType": "address",
              "name": "originalOwner",
              "type": "address"
            }
          ],
          "internalType": "struct EventTicket.TicketInfo",
          "name": "",
          "type": "tuple"
        }
      ],
      "stateMutability": "view",
      "type": "function"
    },
    {
      "inputs": [
        {
          "internalType": "bytes32",
          "name": "role",
          "type": "bytes32"
        },
        {
          "internalType": "address",
          "name": "account",
          "type": "address"
        }
      ],
      "name": "grantRole",
      "outputs": [],
      "stateMutability": "nonpayable",
      "type": "function"
    },
    {
      "inputs": [
        {
          "internalType": "address",
          "name": "",
          "type": "address"
        }
      ],
      "name": "hasAttended",
      "outputs": [
        {
          "internalType": "bool",
          "name": "",
          "type": "bool"
        }
      ],
      "stateMutability": "view",
      "type": "function"
    },
    {
      "inputs": [
        {
          "internalType": "bytes32",
          "name": "role",
          "type": "bytes32"
        },
        {
          "internalType": "address",
          "name": "account",
          "type": "address"
        }
      ],
      "name": "hasRole",
      "outputs": [
        {
          "internalType": "bool",
          "name": "",
          "type": "bool"
        }
      ],
      "stateMutability": "view",
      "type": "function"
    },
    {
      "inputs": [
        {
          "internalType": "address",
          "name": "owner",
          "type": "address"
        },
        {
          "internalType": "address",
          "name": "operator",
          "type": "address"
        }
      ],
      "name": "isApprovedForAll",
      "outputs": [
        {
          "internalType": "bool",
          "name": "",
          "type": "bool"
        }
      ],
      "stateMutability": "view",
      "type": "function"
    },
    {
      "inputs": [
        {
          "internalType": "uint256",
          "name": "_tokenId",
          "type": "uint256"
        },
        {
          "internalType": "uint256",
          "name": "_price",
          "type": "uint256"
        }
      ],
      "name": "listForResale",
      "outputs": [],
      "stateMutability": "nonpayable",
      "type": "function"
    },
    {
      "inputs": [
        {
          "internalType": "uint256",
          "name": "_seatNumber",
          "type": "uint256"
        }
      ],
      "name": "mintTicket",
      "outputs": [],
      "stateMutability": "payable",
      "type": "function"
    },
    {
      "inputs": [],
      "name": "name",
      "outputs": [
        {
          "internalType": "string",
          "name": "",
          "type": "string"
        }
      ],
      "stateMutability": "view",
      "type": "function"
    },
    {
      "inputs": [],
      "name": "organizerRoyalty",
      "outputs": [
        {
          "internalType": "uint256",
          "name": "",
          "type": "uint256"
        }
      ],
      "stateMutability": "view",
      "type": "function"
    },
    {
      "inputs": [
        {
          "internalType": "uint256",
          "name": "tokenId",
          "type": "uint256"
        }
      ],
      "name": "ownerOf",
      "outputs": [
        {
          "internalType": "address",
          "name": "",
          "type": "address"
        }
      ],
      "stateMutability": "view",
      "type": "function"
    },
    {
      "inputs": [],
      "name": "pause",
      "outputs": [],
      "stateMutability": "nonpayable",
      "type": "function"
    },
    {
      "inputs": [],
      "name": "paused",
      "outputs": [
        {
          "internalType": "bool",
          "name": "",
          "type": "bool"
        }
      ],
      "stateMutability": "view",
      "type": "function"
    },
    {
      "inputs": [],
      "name": "platformFee",
      "outputs": [
        {
          "internalType": "uint256",
          "name": "",
          "type": "uint256"
        }
      ],
      "stateMutability": "view",
      "type": "function"
    },
    {
      "inputs": [],
      "name": "platformFeeRecipient",
      "outputs": [
        {
          "internalType": "address",
          "name": "",
          "type": "address"
        }
      ],
      "stateMutability": "view",
      "type": "function"
    },
    {
      "inputs": [
        {
          "internalType": "bytes32",
          "name": "role",
          "type": "bytes32"
        },
        {
          "internalType": "address",
          "name": "callerConfirmation",
          "type": "address"
        }
      ],
      "name": "renounceRole",
      "outputs": [],
      "stateMutability": "nonpayable",
      "type": "function"
    },
    {
      "inputs": [
        {
          "internalType": "uint256",
          "name": "_tokenId",
          "type": "uint256"
        }
      ],
      "name": "requestRefund",
      "outputs": [],
      "stateMutability": "nonpayable",
      "type": "function"
    },
    {
      "inputs": [
        {
          "internalType": "bytes32",
          "name": "role",
          "type": "bytes32"
        },
        {
          "internalType": "address",
          "name": "account",
          "type": "address"
        }
      ],
      "name": "revokeRole",
      "outputs": [],
      "stateMutability": "nonpayable",
      "type": "function"
    },
    {
      "inputs": [
        {
          "internalType": "address",
          "name": "from",
          "type": "address"
        },
        {
          "internalType": "address",
          "name": "to",
          "type": "address"
        },
        {
          "internalType": "uint256",
          "name": "tokenId",
          "type": "uint256"
        }
      ],
      "name": "safeTransferFrom",
      "outputs": [],
      "stateMutability": "nonpayable",
      "type": "function"
    },
    {
      "inputs": [
        {
          "internalType": "address",
          "name": "from",
          "type": "address"
        },
        {
          "internalType": "address",
          "name": "to",
          "type": "address"
        },
        {
          "internalType": "uint256",
          "name": "tokenId",
          "type": "uint256"
        },
        {
          "internalType": "bytes",
          "name": "data",
          "type": "bytes"
        }
      ],
      "name": "safeTransferFrom",
      "outputs": [],
      "stateMutability": "nonpayable",
      "type": "function"
    },
    {
      "inputs": [
        {
          "internalType": "uint256",
          "name": "",
          "type": "uint256"
        }
      ],
      "name": "seatTaken",
      "outputs": [
        {
          "internalType": "address",
          "name": "",
          "type": "address"
        }
      ],
      "stateMutability": "view",
      "type": "function"
    },
    {
      "inputs": [
        {
          "internalType": "address",
          "name": "operator",
          "type": "address"
        },
        {
          "internalType": "bool",
          "name": "approved",
          "type": "bool"
        }
      ],
      "name": "setApprovalForAll",
      "outputs": [],
      "stateMutability": "nonpayable",
      "type": "function"
    },
    {
      "inputs": [
        {
          "internalType": "bytes4",
          "name": "interfaceId",
          "type": "bytes4"
        }
      ],
      "name": "supportsInterface",
      "outputs": [
        {
          "internalType": "bool",
          "name": "",
          "type": "bool"
        }
      ],
      "stateMutability": "view",
      "type": "function"
    },
    {
      "inputs": [],
      "name": "symbol",
      "outputs": [
        {
          "internalType": "string",
          "name": "",
          "type": "string"
        }
      ],
      "stateMutability": "view",
      "type": "function"
    },
    {
      "inputs": [
        {
          "internalType": "uint256",
          "name": "",
          "type": "uint256"
        }
      ],
      "name": "tickets",
      "outputs": [
        {
          "internalType": "uint256",
          "name": "seatNumber",
          "type": "uint256"
        },
        {
          "internalType": "uint256",
          "name": "purchasePrice",
          "type": "uint256"
        },
        {
          "internalType": "uint256",
          "name": "purchaseTime",
          "type": "uint256"
        },
        {
          "internalType": "bool",
          "name": "isUsed",
          "type": "bool"
        },
        {
          "internalType": "bool",
          "name": "isForResale",
          "type": "bool"
        },
        {
          "internalType": "uint256",
          "name": "resalePrice",
          "type": "uint256"
        },
        {
          "internalType": "address",
          "name": "originalOwner",
          "type": "address"
        }
      ],
      "stateMutability": "view",
      "type": "function"
    },
    {
      "inputs": [
        {
          "internalType": "uint256",
          "name": "tokenId",
          "type": "uint256"
        }
      ],
      "name": "tokenURI",
      "outputs": [
        {
          "internalType": "string",
          "name": "",
          "type": "string"
        }
      ],
      "stateMutability": "view",
      "type": "function"
    },
    {
      "inputs": [
        {
          "internalType": "address",
          "name": "from",
          "type": "address"
        },
        {
          "internalType": "address",
          "name": "to",
          "type": "address"
        },
        {
          "internalType": "uint256",
          "name": "tokenId",
          "type": "uint256"
        }
      ],
      "name": "transferFrom",
      "outputs": [],
      "stateMutability": "nonpayable",
      "type": "function"
    },
    {
      "inputs": [
        {
          "internalType": "uint256",
          "name": "_tokenId",
          "type": "uint256"
        }
      ],
      "name": "unlistFromResale",
      "outputs": [],
      "stateMutability": "nonpayable",
      "type": "function"
    },
    {
      "inputs": [],
      "name": "unpause",
      "outputs": [],
      "stateMutability": "nonpayable",
      "type": "function"
    },
    {
      "inputs": [
        {
          "internalType": "uint256",
          "name": "_tokenId",
          "type": "uint256"
        }
      ],
      "name": "useTicket",
      "outputs": [],
      "stateMutability": "nonpayable",
      "type": "function"
    }
  ],
  "bytecode": "0x6080604052346200099e57620034f0803803806200001d81620009a3565b9283398101906060818303126200099e5780516001600160401b0381116200099e5781016101409283828203126200099e576040519384016001600160401b03811185821017620005855760405281516001600160401b0381116200099e57816200008a918401620009c9565b845260208201516001600160401b0381116200099e5781620000ae918401620009c9565b60208501526040820151906001600160401b0382116200099e57620000d5918301620009c9565b6040840152606081015160608401526080810151608084015260a081015160a084015260c081015160c08401526200011060e0820162000a3b565b60e08401526101006200012581830162000a50565b908401526200013961012080920162000a50565b81840152620001596040620001516020850162000a3b565b930162000a3b565b835160408051919082016001600160401b038111838210176200058557604052600482526308aaca8b60e31b60208301528051906001600160401b038211620005855760005490600182811c9216801562000993575b6020831014620005645781601f84931162000930575b50602090601f8311600114620008b457600092620008a8575b50508160011b916000199060031b1c1916176000555b8051906001600160401b038211620005855760015490600182811c921680156200089d575b6020831014620005645781601f84931162000839575b50602090601f8311600114620007bb57600092620007af575b50508160011b916000199060031b1c1916176001555b600160075560fa6015556101f460175583518051906001600160401b0382116200058557600a5490600182811c92168015620007a4575b6020831014620005645781601f84931162000740575b50602090601f8311600114620006c257600092620006b6575b50508160011b916000199060031b1c191617600a555b60208401518051906001600160401b0382116200058557600b5490600182811c92168015620006ab575b6020831014620005645781601f84931162000636575b50602090601f8311600114620005a7576000926200059b575b50508160011b916000199060031b1c191617600b555b6040840151805194906001600160401b0386116200058557600c54600181811c911680156200057a575b60208210146200056457601f8111620004fa575b50602090601f87116001146200046a57620004419691600091836200045e575b50508160011b916000199060031b1c191617600c555b6060810151600d556080810151600e5560a0810151600f5560c08101516010556011805493909101516001600160b01b031990931692151560a81b60ff60a81b16929092176001600160a01b0384811691909117600160a01b17909255601680546001600160a01b031916919092161790556200043a3362000a5e565b5062000adf565b506200044d3362000b82565b5060405161284f908162000c218239f35b015190503880620003a7565b600c60009081527fdf6966c971051c3d54ec59162606531493a51404a002842f56009d7e5cf4a8c7929190601f198916905b818110620004e15750916001939189620004419a9410620004c7575b505050811b01600c55620003bd565b015160001960f88460031b161c19169055388080620004b8565b929360206001819287860151815501950193016200049c565b600c6000527fdf6966c971051c3d54ec59162606531493a51404a002842f56009d7e5cf4a8c7601f880160051c8101916020891062000559575b601f0160051c01905b8181106200054c575062000387565b600081556001016200053d565b909150819062000534565b634e487b7160e01b600052602260045260246000fd5b90607f169062000373565b634e487b7160e01b600052604160045260246000fd5b01519050388062000333565b600b600090815293507f0175b7a638427703f0dbe7bb9bbf987a2551717b34e79f33b5b1008d1fa01db991905b601f19841685106200061a576001945083601f1981161062000600575b505050811b01600b5562000349565b015160001960f88460031b161c19169055388080620005f1565b81810151835560209485019460019093019290910190620005d4565b600b6000529091507f0175b7a638427703f0dbe7bb9bbf987a2551717b34e79f33b5b1008d1fa01db9601f840160051c81019160208510620006a0575b90601f859493920160051c01905b8181106200069057506200031a565b6000815584935060010162000681565b909150819062000673565b91607f169162000304565b015190503880620002c4565b600a600090815293506000805160206200349083398151915291905b601f198416851062000724576001945083601f198116106200070a575b505050811b01600a55620002da565b015160001960f88460031b161c19169055388080620006fb565b81810151835560209485019460019093019290910190620006de565b600a60005290915060008051602062003490833981519152601f840160051c8101916020851062000799575b90601f859493920160051c01905b818110620007895750620002ab565b600081558493506001016200077a565b90915081906200076c565b91607f169162000295565b01519050388062000248565b600160009081529350600080516020620034d083398151915291905b601f19841685106200081d576001945083601f1981161062000803575b505050811b016001556200025e565b015160001960f88460031b161c19169055388080620007f4565b81810151835560209485019460019093019290910190620007d7565b6001600052909150600080516020620034d0833981519152601f840160051c8101916020851062000892575b90601f859493920160051c01905b8181106200088257506200022f565b6000815584935060010162000873565b909150819062000865565b91607f169162000219565b015190503880620001de565b60008080529350600080516020620034b083398151915291905b601f198416851062000914576001945083601f19811610620008fa575b505050811b01600055620001f4565b015160001960f88460031b161c19169055388080620008eb565b81810151835560209485019460019093019290910190620008ce565b60008052909150600080516020620034b0833981519152601f840160051c8101916020851062000988575b90601f859493920160051c01905b818110620009785750620001c5565b6000815584935060010162000969565b90915081906200095b565b91607f1691620001af565b600080fd5b6040519190601f01601f191682016001600160401b038111838210176200058557604052565b919080601f840112156200099e5782516001600160401b0381116200058557602090620009ff601f8201601f19168301620009a3565b928184528282870101116200099e5760005b81811062000a2757508260009394955001015290565b858101830151848201840152820162000a11565b51906001600160a01b03821682036200099e57565b519081151582036200099e57565b6001600160a01b031660008181527f54cdd369e4e8a8515e52ca72ec816c2101831ad1f18bf44102ed171459c9b4f8602052604081205490919060ff1662000adb5781805260066020526040822081835260205260408220600160ff198254161790553391600080516020620034708339815191528180a4600190565b5090565b6001600160a01b031660008181527f430c562d7c3e472e6d23b6b6eb4097852dbd132334ba1418ef03049964aed93860205260408120549091907f4d2e7a1e3f5dd6e203f087b15756ccf0e4ccd947fe1b639a38540089a1e47f639060ff1662000b7d5780835260066020526040832082845260205260408320600160ff1982541617905560008051602062003470833981519152339380a4600190565b505090565b6001600160a01b031660008181527fe09f975e15f8f53f24cbbc282b13c40b84df485fcdb8d3997fa103dc5a4ef84160205260408120549091907f65d7a28e3265b37a6474929f336521b332c1681b933f6cb9f3376673440d862a9060ff1662000b7d5780835260066020526040832082845260205260408320600160ff1982541617905560008051602062003470833981519152339380a460019056fe608060408181526004918236101561001657600080fd5b600090813560e01c90816301ffc9a714611e505750806306fdde0314611d86578063081812fc14611d4a578063095ea7b314611c6d5780631d9c5d5c1461195c5780631f7d863c1461183657806323b872dd1461181e578063248a9ca3146117f3578063256d52f61461134a57806326232a2e1461132b57806326606448146111db57806328cc14cd146111225780632f2ff15d146110f857806336568abe146110b25780633f4ba83a1461104857806342842e0e1461101957806350b4471214610fa05780635c975abb14610f7c57806362a2a9aa14610f495780636352211e14610f1957806369c39b2314610efa57806370a0823114610ea65780637909cb5914610e6b5780638456cb5914610e10578063906d895d14610d2457806391d1485414610cdd57806395d89b4114610bc8578063a217fddf14610bad578063a22cb46514610b01578063a4b2409e146109c0578063b1b410f51461068c578063b88d4fde146105f6578063c87b56dd146105a4578063d547741f14610564578063d866b0b614610526578063e63ab1e9146104eb578063e7705db6146104b0578063e985e9c514610462578063eb13554f14610439578063fb6c9537146102f05763ff99a063146101e757600080fd5b346102ed57602092836003193601126102e95760e093838235938060c0835161020f81611f7c565b828152828682015282858201528260608201528260808201528260a082015201528481526002835260018060a01b039461024f86848420541615156126f5565b815260128352209084519261026384611f7c565b82549586855260018401549280860193845260028501549082870191825260038601549460c089600560608b019760ff8a161515895260ff60808d019a60081c1615158a528a01549960a08c019a8b5201541698019788528351998a5251908901525190870152511515606086015251151560808501525160a0840152511660c0820152f35b5080fd5b80fd5b5091346104355782600319360112610435577f4d2e7a1e3f5dd6e203f087b15756ccf0e4ccd947fe1b639a38540089a1e47f63808452600660205282842033855260205260ff83852054161561041a57506011549160ff8360a81c166103d757600d5442101561039457505061ffff60a01b1916600160a81b176011557fc423524f667a9459893f10159c8a95981a43fb77edd414f6325d8439604ad4188180a180f35b906020606492519162461bcd60e51b8352820152601f60248201527f43616e6e6f742063616e63656c206166746572206576656e74207374617274006044820152fd5b906020606492519162461bcd60e51b8352820152601760248201527f4576656e7420616c72656164792063616e63656c6c65640000000000000000006044820152fd5b604492519163e2517d3f60e01b835233908301526024820152fd5b8280fd5b5090346102e957816003193601126102e95760165490516001600160a01b039091168152602090f35b5090346102e957806003193601126102e95760ff81602093610482611f16565b61048a611f31565b6001600160a01b0391821683526005875283832091168252855220549151911615158152f35b5090346102e957816003193601126102e957602090517f0ce23c3e399818cfee81a7ab0880f714e53d7672b08df0fa62f2843416e1ea098152f35b5090346102e957816003193601126102e957602090517f65d7a28e3265b37a6474929f336521b332c1681b933f6cb9f3376673440d862a8152f35b5090346102e95760203660031901126102e95760209160ff9082906001600160a01b03610551611f16565b1681526014855220541690519015158152f35b509190346104355780600319360112610435576105a0913561059b6001610589611f31565b93838752600660205286200154612082565b612128565b5080f35b5090346102e95760203660031901126102e9576105c46105f29335612404565b508181516105d181611fae565b528051916105de83611fae565b825251918291602083526020830190611ed6565b0390f35b5091903461043557608036600319011261043557610612611f16565b61061a611f31565b60443591856064359567ffffffffffffffff87116102e957366023880112156102e9578601359561065661064d88611fec565b96519687611fca565b86865236602488830101116102e9578661068997602460209301838901378601015261068383838361219f565b3361246f565b80f35b5091903461043557826003193601126104355780519183600a549460019186831c8388169788156109b6575b60209889831081146109a3579189939189938285529081600014610985575060011461092b575b506106ec92500386611fca565b83519281600b5480851c908581168015610921575b8a8310811461090e57918a9391889382855290816000146108f05750600114610896575b5061073292500385611fca565b84519282600c5480831c9383821690811561088c575b8b8610821461087957508487529081156108585750600114610804575b505050948161077c60ff94936107aa980382611fca565b600d54946107c3600e5491600f54936107b660105496601154988451809e819e610140808452830190611ed6565b92818403910152611ed6565b918a8303908b0152611ed6565b956060880152608087015260a086015260c085015260018060a01b03811660e0850152818160a01c16151561010085015260a81c1615156101208301520390f35b9250600c83527fdf6966c971051c3d54ec59162606531493a51404a002842f56009d7e5cf4a8c75b82841061084557505050810185018161077c60ff610765565b80548585018a015292880192810161082c565b60ff1916868b0152505050151560051b8201860190508161077c60ff610765565b634e487b7160e01b845260229052602483fd5b94607f1694610748565b600b8652859150867f0175b7a638427703f0dbe7bb9bbf987a2551717b34e79f33b5b1008d1fa01db95b8284106108d95750505091610732928201018992610725565b80548a8501870152899450928501928891016108c0565b60ff191684860152508a9390151560051b8301019050610732610725565b634e487b7160e01b865260228552602486fd5b91607f1691610701565b600a8552849150857fc65a7bb8d6351c1cf70c95a316cc6a92839c986682d98bc35f958f4883f9d2a85b82841061096e57505050916106ec9282010188926106df565b80548b85018701528a945092850192879101610955565b60ff19168486015250899390151560051b83010190506106ec6106df565b634e487b7160e01b855260228752602485fd5b90607f16906106b8565b5091903461043557602080600319360112610afd578235916109e0612611565b60ff60115460a81c1615610ac657610a0a6109fa84612404565b6001600160a01b03163314612634565b82855260128252610a2460ff600383882001541615612673565b8285526012825280852093600360018601549501600160ff198254161790558580808088335af1610a5361243f565b5015610a8c5750907f7a482fdeb6bc9a1376f597068a214a7a39472bb2eff1b8cad21ba04f49ddca1b91519384523393a3600160075580f35b82606492519162461bcd60e51b835282015260166024820152751499599d5b99081d1c985b9cd9995c8819985a5b195960521b6044820152fd5b5162461bcd60e51b815292830152506013602482015272115d995b9d081b9bdd0818d85b98d95b1b1959606a1b6044820152606490fd5b8380fd5b50919034610435578060031936011261043557610b1c611f16565b9060243580151592838203610ba9576001600160a01b0316938415610b925750610b659033865260056020528286208587526020528286209060ff801983541691151516179055565b519081527f17307eab39ab6107e8899845ad3d59bd9653f200f220920489ca2b5937696c3160203392a380f35b8251630b61174360e31b8152908101859052602490fd5b8580fd5b5090346102e957816003193601126102e95751908152602090f35b50346102ed57806003193601126102ed578151918160019283549384811c91818616958615610cd3575b6020968785108114610cc0578899509688969785829a529182600014610c99575050600114610c3e575b5050506105f29291610c2f910385611fca565b51928284938452830190611ed6565b91908693508083527fb10e2d527612073b26eecdfd717e6a320cf44b4afac2b0732d9fcbe2b7fa0cf65b828410610c815750505082010181610c2f6105f2610c1c565b8054848a018601528895508794909301928101610c68565b60ff19168782015293151560051b86019093019350849250610c2f91506105f29050610c1c565b634e487b7160e01b835260228a52602483fd5b92607f1692610bf2565b5091346104355781600319360112610435578160209360ff92610cfe611f31565b90358252600686528282206001600160a01b039091168252855220549151911615158152f35b5090346102e957816003193601126102e957600f5490610d43826127bd565b918390845b818110610dcc575050610d5a816127bd565b92845b828110610da85750505090815192839260208080860192818752855180945286019401925b828110610d9157505050500390f35b835185528695509381019392810192600101610d82565b80610db6610dc792846127ef565b51610dc182886127ef565b526125ce565b610d5d565b8086526013602052838620546001600160a01b031615610df5575b610df0906125ce565b610d48565b91610e088184610dc1610df094896127ef565b929050610de7565b5090346102e957816003193601126102e95760207f62e78cea01bee320cd4e420270b5ea74000d11b0c9f74754ebdbfc544b05a25891610e4e612008565b610e566125f3565b600160ff19600854161760085551338152a180f35b5090346102e957816003193601126102e957602090517f4d2e7a1e3f5dd6e203f087b15756ccf0e4ccd947fe1b639a38540089a1e47f638152f35b50346102ed5760203660031901126102ed576001600160a01b03610ec8611f16565b16928315610ee55750806020938392526003845220549051908152f35b91516322718ad960e21b815291820152602490fd5b5090346102e957816003193601126102e9576020906017549051908152f35b50346102ed5760203660031901126102ed5750610f3860209235612404565b90516001600160a01b039091168152f35b5091346104355760203660031901126104355735825260136020908152918190205490516001600160a01b039091168152f35b5090346102e957816003193601126102e95760209060ff6008541690519015158152f35b50919034610435576020366003190112610435578060e0938335815260126020522060ff81549360018301549360028401549060038501549285015494600560018060a01b039101541695815197885260208801528601528181161515606086015260081c161515608084015260a083015260c0820152f35b5090346102e9576106899061102d36611f47565b9192519261103a84611fae565b85845261068383838361219f565b509134610435578260031936011261043557611062612008565b6008549060ff8216156110a4575060ff1916600855513381527f5db9ee0a495bf2e6ff9c91a7834c1ba4fdd244a5e8aa4e537bd38aeae4b073aa90602090a180f35b8251638dfc202b60e01b8152fd5b5090346102e957806003193601126102e9576110cc611f31565b90336001600160a01b038316036110e957506105a0919235612128565b5163334bd91960e11b81528390fd5b509190346104355780600319360112610435576105a0913561111d6001610589611f31565b6120a8565b509134610435576020366003190112610435578035916111446109fa84612404565b828452601260205260ff6003828620015460081c16156111a0578284526012602052832060038101805461ff0019169055018290557fdb00f3044f762e640c77fdd12df2e7cf2b4c17de34f8995969a4d98b9904af458280a280f35b906020606492519162461bcd60e51b835282015260156024820152744e6f74206c697374656420666f7220726573616c6560581b6044820152fd5b509190346104355760209182600319360112610afd578035917f0ce23c3e399818cfee81a7ab0880f714e53d7672b08df0fa62f2843416e1ea0980865260068552818620338752855260ff82872054161561130f575082855260028452808520546001600160a01b03929061125390841615156126f5565b8386526012855261126d60ff600384892001541615612673565b600d5442106112d65750600190601461128585612404565b93858852601287526003838920019460ff199585878254161790551695868852528520918254161790557f07c2221c844690cb15e32907258d38446cd4a17bc9b84e2069cd955615d547fd8380a380f35b84606492519162461bcd60e51b83528201526015602482015274115d995b9d081a185cc81b9bdd081cdd185c9d1959605a1b6044820152fd5b60449291519163e2517d3f60e01b835233908301526024820152fd5b5090346102e957816003193601126102e9576020906015549051908152f35b50906020908160031936011261043557833591611365612611565b61136d6125f3565b60115460ff8160a01c16156117ba5760a81c60ff1661178357600f5483101561174b5782845260138152818420546001600160a01b039590861661171557600e54956113bb8734101561258b565b600d544210156116d3576005949596816009549687926113da846125ce565b600955868851916113ea83611f7c565b8b83528183019081528c8a840142815260608501928284528c6080870193808552601260a089019782895260c08a019c8d339052835252209551865551600186015551600285015561144f6003850192511515839060ff801983541691151516179055565b51151561ff0082549160081b169061ff001916179055518682015501915116906bffffffffffffffffffffffff60a01b91828254161790558688526013845284882090339082541617905583516114a581611fae565b87815233156116bc57816114b98733612348565b166116a557333b6115b0575b508680808093600e54906114e96127106114e160155485612739565b04809361274c565b91838161158d575b5050601154165af161150161243f565b50156115425750907fc37a1385743f2c8fd48bc6522d6e5d7c954ff19299e19f502e7fad8a1568792b91600e549082519586528501523393a3600160075580f35b915162461bcd60e51b815291820152602160248201527f4f7267616e697a6572207061796d656e74207472616e73666572206661696c656044820152601960fa1b6064820152608490fd5b8080806115a99486601654165af16115a361243f565b50612759565b38836114f1565b84959296939794518881806115ec630a85bd0160e11b95868352338d8401528a6024840152886044840152608060648401526084830190611ed6565b038189335af1869181611661575b5061162f5788888861160a61243f565b8051939084611629578251633250574960e11b81523381860152602490fd5b84925001fd5b949793969295946001600160e01b0319160361164b57866114c5565b8351633250574960e11b81523381840152602490fd5b9091508981813d831161169e575b6116798183611fca565b8101031261169a57516001600160e01b03198116810361169a5790386115fa565b8680fd5b503d61166f565b84516339e3563760e11b8152808401899052602490fd5b8451633250574960e11b8152808401899052602490fd5b50915162461bcd60e51b815291820152601960248201527f4576656e742068617320616c72656164792073746172746564000000000000006044820152606490fd5b915162461bcd60e51b815291820152601260248201527129b2b0ba1030b63932b0b23c903a30b5b2b760711b6044820152606490fd5b8490606492519162461bcd60e51b8352820152601360248201527224b73b30b634b21039b2b0ba10373ab6b132b960691b6044820152fd5b8490606492519162461bcd60e51b83528201526012602482015271115d995b9d081a5cc818d85b98d95b1b195960721b6044820152fd5b825162461bcd60e51b815280870183905260136024820152724576656e74206973206e6f742061637469766560681b6044820152606490fd5b5091346104355760203660031901126104355781602093600192358152600685522001549051908152f35b50346102ed5761068961183036611f47565b9161219f565b5091346104355781600319360112610435578035916024359061185b6109fa85612404565b8385526020926012845260ff6003838820015460081c1661192a578486526012845261189060ff600384892001541615612673565b60105483116118f15790827f2d8cbebfd87cb19b7bed949f9c8d5a80d939133966ef331ac575d69160ea04659493926118cc600d5442106126b5565b8688526012855282882060038101805461ff001916610100179055015551908152a280f35b83606492519162461bcd60e51b8352820152601560248201527450726963652065786365656473206d6178696d756d60581b6044820152fd5b83606492519162461bcd60e51b8352820152600e60248201526d105b1c9958591e481b1a5cdd195960921b6044820152fd5b50919060209081600319360112610afd57823591611978612611565b6119806125f3565b8285526012815260ff6003838720015460081c1615611c3557828552601281526119b184838720015434101561258b565b6119be600d5442106126b5565b6119c783612404565b906001600160a01b038083169190338314611bfa57858852601282528488209387850194898654966003830161ff001981541690555554895260138352858920336bffffffffffffffffffffffff60a01b8254161790553315611be357611a2e8733612348565b80831680611a4d578751637e27328960e01b8152808b018a9052602490fd5b94809897959994969903611bad575050876127109182611a6f6015548b612739565b0492611a7d6017548b612739565b0490611a9282611a8d868d61274c565b61274c565b938381611b90575b505081611b2d575b505080808093895af1611ab361243f565b5015611aec5750907f2bbc64d6afd28a753f6c5e4aaa894f1d684c44a0e080167eae104ac8505cfebd91519485523394a4600160075580f35b82606492519162461bcd60e51b8352820152601e60248201527f53656c6c6572207061796d656e74207472616e73666572206661696c656400006044820152fd5b8280928192601154165af1611b4061243f565b5015611b4e57873880611aa2565b5082606492519162461bcd60e51b8352820152601760248201527f526f79616c7479207472616e73666572206661696c65640000000000000000006044820152fd5b808080611ba69486601654165af16115a361243f565b3883611a9a565b84516364283d7b60e01b81526001600160a01b039283168582019081526020810189905291909216604082015281900360600190fd5b8551633250574960e11b81528089018a9052602490fd5b845162461bcd60e51b8152808801839052601560248201527410d85b9b9bdd08189d5e481bdddb881d1a58dad95d605a1b6044820152606490fd5b8390606492519162461bcd60e51b835282015260136024820152725469636b6574206e6f7420666f722073616c6560681b6044820152fd5b50919034610435578060031936011261043557611c88611f16565b91602435611c9581612404565b33151580611d37575b80611d0e575b611cf8576001600160a01b039485169482918691167f8c5be1e5ebec7d5bd14f71427d1e84f3dd0314c0f7b2291e5b200ac8c7c3b9258880a48452602052822080546001600160a01b031916909117905580f35b835163a9fbf51f60e01b81523381850152602490fd5b506001600160a01b03811686526005602090815284872033885290528386205460ff1615611ca4565b506001600160a01b038116331415611c9e565b50913461043557602036600319011261043557918260209335611d6c81612404565b50825283528190205490516001600160a01b039091168152f35b50346102ed57806003193601126102ed5781519181825492600184811c91818616958615611e46575b6020968785108114610cc0578899509688969785829a529182600014610c99575050600114611deb575050506105f29291610c2f910385611fca565b91908693508280527f290decd9548b62a8d60345a988386fc84ba6bc95484008f6362f93160ef3e5635b828410611e2e5750505082010181610c2f6105f2610c1c565b8054848a018601528895508794909301928101611e15565b92607f1692611daf565b90508334610435576020366003190112610435573563ffffffff60e01b81168091036104355760209250637965db0b60e01b8114908115611e93575b5015158152f35b6380ac58cd60e01b811491508115611ec5575b8115611eb4575b5083611e8c565b6301ffc9a760e01b14905083611ead565b635b5e139f60e01b81149150611ea6565b919082519283825260005b848110611f02575050826000602080949584010152601f8019910116010190565b602081830181015184830182015201611ee1565b600435906001600160a01b0382168203611f2c57565b600080fd5b602435906001600160a01b0382168203611f2c57565b6060906003190112611f2c576001600160a01b03906004358281168103611f2c57916024359081168103611f2c579060443590565b60e0810190811067ffffffffffffffff821117611f9857604052565b634e487b7160e01b600052604160045260246000fd5b6020810190811067ffffffffffffffff821117611f9857604052565b90601f8019910116810190811067ffffffffffffffff821117611f9857604052565b67ffffffffffffffff8111611f9857601f01601f191660200190565b3360009081527fe09f975e15f8f53f24cbbc282b13c40b84df485fcdb8d3997fa103dc5a4ef84160205260409020547f65d7a28e3265b37a6474929f336521b332c1681b933f6cb9f3376673440d862a9060ff16156120645750565b6044906040519063e2517d3f60e01b82523360048301526024820152fd5b80600052600660205260406000203360005260205260ff60406000205416156120645750565b906000918083526006602052604083209160018060a01b03169182845260205260ff604084205416156000146121235780835260066020526040832082845260205260408320600160ff198254161790557f2f8788117e7eff1d82e926ec794901d17c78024a50270940304540a733656f0d339380a4600190565b505090565b906000918083526006602052604083209160018060a01b03169182845260205260ff604084205416600014612123578083526006602052604083208284526020526040832060ff1981541690557ff6391f5c32d9c69d2a47ea670b442974b53935d1edc7fd64eb21e047a839171b339380a4600190565b906001600160a01b03908116801561232f57600091848352846020926002845260409383858720541695869133151580612299575b509060027fddf252ad1be2c89b69c2b068fc378daa952ba7f163c4a11628f55a4df523b3ef9284612266575b85835260038152888320805460010190558683525286812080546001600160a01b0319168517905580a4831682036122385750505050565b516364283d7b60e01b81526001600160a01b0392831660048201526024810193909352166044820152606490fd5b600087815260046020526040902080546001600160a01b0319169055848352600381528883208054600019019055612200565b919394509150806122ee575b156122b5578792918691386121d4565b8488876122d2576024915190637e27328960e01b82526004820152fd5b604491519063177e802f60e01b82523360048301526024820152fd5b503386148015612313575b806122a557508782526004815233848684205416146122a5565b5085825260058152848220338352815260ff85832054166122f9565b604051633250574960e11b815260006004820152602490fd5b6000828152600260205260408120546001600160a01b03908116939284917fddf252ad1be2c89b69c2b068fc378daa952ba7f163c4a11628f55a4df523b3ef91836123cf575b1692836123b7575b84815260026020526040812080546001600160a01b0319168517905580a490565b83815260036020526040812060018154019055612396565b600086815260046020526040902080546001600160a01b0319169055838552600360205260408520805460001901905561238e565b6000818152600260205260409020546001600160a01b0316908115612427575090565b60249060405190637e27328960e01b82526004820152fd5b3d1561246a573d9061245082611fec565b9161245e6040519384611fca565b82523d6000602084013e565b606090565b9293823b61247f575b5050505050565b6124c39060018060a01b038094169560405194859481630a85bd0160e11b988988521660048701521660248501526044840152608060648401526084830190611ed6565b03906020816000938185885af190829082612543575b505061251157826124e861243f565b805191908261250a57604051633250574960e11b815260048101839052602490fd5b6020915001fd5b6001600160e01b0319160361252b57503880808080612478565b60249060405190633250574960e11b82526004820152fd5b909192506020813d8211612583575b8161255f60209383611fca565b810103126102e95751906001600160e01b0319821682036102ed57509038806124d9565b3d9150612552565b1561259257565b60405162461bcd60e51b8152602060048201526014602482015273125b9cdd59999a58da595b9d081c185e5b595b9d60621b6044820152606490fd5b60001981146125dd5760010190565b634e487b7160e01b600052601160045260246000fd5b60ff600854166125ff57565b60405163d93c066560e01b8152600490fd5b600260075414612622576002600755565b604051633ee5aeb560e01b8152600490fd5b1561263b57565b60405162461bcd60e51b815260206004820152601060248201526f2737ba103a34b1b5b2ba1037bbb732b960811b6044820152606490fd5b1561267a57565b60405162461bcd60e51b8152602060048201526013602482015272151a58dad95d08185b1c9958591e481d5cd959606a1b6044820152606490fd5b156126bc57565b60405162461bcd60e51b8152602060048201526011602482015270115d995b9d081a185cc81cdd185c9d1959607a1b6044820152606490fd5b156126fc57565b60405162461bcd60e51b8152602060048201526015602482015274151a58dad95d08191bd95cc81b9bdd08195e1a5cdd605a1b6044820152606490fd5b818102929181159184041417156125dd57565b919082039182116125dd57565b1561276057565b60405162461bcd60e51b815260206004820152601c60248201527f506c6174666f726d20666565207472616e73666572206661696c6564000000006044820152606490fd5b67ffffffffffffffff8111611f985760051b60200190565b906127c7826127a5565b6127d46040519182611fca565b82815280926127e5601f19916127a5565b0190602036910137565b80518210156128035760209160051b010190565b634e487b7160e01b600052603260045260246000fdfea26469706673582212203577fc305b5b4f625cd1acdea3a4fa80c6c356de38440fbad32f4d889dee993e64736f6c634300081400332f8788117e7eff1d82e926ec794901d17c78024a50270940304540a733656f0dc65a7bb8d6351c1cf70c95a316cc6a92839c986682d98bc35f958f4883f9d2a8290decd9548b62a8d60345a988386fc84ba6bc95484008f6362f93160ef3e563b10e2d527612073b26eecdfd717e6a320cf44b4afac2b0732d9fcbe2b7fa0cf6",
  "linkReferences": {},
  "deployedLinkReferences": {}
}