{
  "_format": "hh-sol-artifact-1",
  "contractName": "TicketMarketplace",
  "sourceName": "contracts/src/marketplace/TicketMarketplace.sol",
  "abi": [
    {
      "inputs": [
        {
          "internalType": "address",
          "name": "_feeRecipient",
          "type": "address"
        },
        {
          "internalType": "address",
          "name": "_eventFactoryAddress",
          "type": "address"
        }
      ],
      "stateMutability": "nonpayable",
      "type": "constructor"
    },
    {
      "inputs": [],
      "name": "AccessControlBadConfirmation",
      "type": "error"
    },
    {
      "inputs": [
        {
          "internalType": "address",
          "name": "account",
          "type": "address"
        },
        {
          "internalType": "bytes32",
          "name": "neededRole",
          "type": "bytes32"
        }
      ],
      "name": "AccessControlUnauthorizedAccount",
      "type": "error"
    },
    {
      "inputs": [],
      "name": "EnforcedPause",
      "type": "error"
    },
    {
      "inputs": [],
      "name": "ExpectedPause",
      "type": "error"
    },
    {
      "inputs": [],
      "name": "ReentrancyGuardReentrantCall",
      "type": "error"
    },
    {
      "anonymous": false,
      "inputs": [
        {
          "indexed": true,
          "internalType": "bytes32",
          "name": "listingId",
          "type": "bytes32"
        },
        {
          "indexed": true,
          "internalType": "address",
          "name": "winner",
          "type": "address"
        },
        {
          "indexed": false,
          "internalType": "uint256",
          "name": "amount",
          "type": "uint256"
        }
      ],
      "name": "AuctionEnded",
      "type": "event"
    },
    {
      "anonymous": false,
      "inputs": [
        {
          "indexed": true,
          "internalType": "bytes32",
          "name": "listingId",
          "type": "bytes32"
        },
        {
          "indexed": true,
          "internalType": "address",
          "name": "bidder",
          "type": "address"
        },
        {
          "indexed": false,
          "internalType": "uint256",
          "name": "amount",
          "type": "uint256"
        }
      ],
      "name": "BidPlaced",
      "type": "event"
    },
    {
      "anonymous": false,
      "inputs": [
        {
          "indexed": true,
          "internalType": "bytes32",
          "name": "listingId",
          "type": "bytes32"
        },
        {
          "indexed": true,
          "internalType": "address",
          "name": "seller",
          "type": "address"
        }
      ],
      "name": "ListingCancelled",
      "type": "event"
    },
    {
      "anonymous": false,
      "inputs": [
        {
          "indexed": false,
          "internalType": "address",
          "name": "account",
          "type": "address"
        }
      ],
      "name": "Paused",
      "type": "event"
    },
    {
      "anonymous": false,
      "inputs": [
        {
          "indexed": true,
          "internalType": "bytes32",
          "name": "role",
          "type": "bytes32"
        },
        {
          "indexed": true,
          "internalType": "bytes32",
          "name": "previousAdminRole",
          "type": "bytes32"
        },
        {
          "indexed": true,
          "internalType": "bytes32",
          "name": "newAdminRole",
          "type": "bytes32"
        }
      ],
      "name": "RoleAdminChanged",
      "type": "event"
    },
    {
      "anonymous": false,
      "inputs": [
        {
          "indexed": true,
          "internalType": "bytes32",
          "name": "role",
          "type": "bytes32"
        },
        {
          "indexed": true,
          "internalType": "address",
          "name": "account",
          "type": "address"
        },
        {
          "indexed": true,
          "internalType": "address",
          "name": "sender",
          "type": "address"
        }
      ],
      "name": "RoleGranted",
      "type": "event"
    },
    {
      "anonymous": false,
      "inputs": [
        {
          "indexed": true,
          "internalType": "bytes32",
          "name": "role",
          "type": "bytes32"
        },
        {
          "indexed": true,
          "internalType": "address",
          "name": "account",
          "type": "address"
        },
        {
          "indexed": true,
          "internalType": "address",
          "name": "sender",
          "type": "address"
        }
      ],
      "name": "RoleRevoked",
      "type": "event"
    },
    {
      "anonymous": false,
      "inputs": [
        {
          "indexed": true,
          "internalType": "bytes32",
          "name": "listingId",
          "type": "bytes32"
        },
        {
          "indexed": true,
          "internalType": "address",
          "name": "seller",
          "type": "address"
        },
        {
          "indexed": true,
          "internalType": "address",
          "name": "ticketContract",
          "type": "address"
        },
        {
          "indexed": false,
          "internalType": "uint256",
          "name": "tokenId",
          "type": "uint256"
        },
        {
          "indexed": false,
          "internalType": "uint256",
          "name": "price",
          "type": "uint256"
        },
        {
          "indexed": false,
          "internalType": "bool",
          "name": "isAuction",
          "type": "bool"
        }
      ],
      "name": "TicketListed",
      "type": "event"
    },
    {
      "anonymous": false,
      "inputs": [
        {
          "indexed": true,
          "internalType": "bytes32",
          "name": "listingId",
          "type": "bytes32"
        },
        {
          "indexed": true,
          "internalType": "address",
          "name": "buyer",
          "type": "address"
        },
        {
          "indexed": true,
          "internalType": "address",
          "name": "seller",
          "type": "address"
        },
        {
          "indexed": false,
          "internalType": "uint256",
          "name": "price",
          "type": "uint256"
        }
      ],
      "name": "TicketSold",
      "type": "event"
    },
    {
      "anonymous": false,
      "inputs": [
        {
          "indexed": false,
          "internalType": "address",
          "name": "account",
          "type": "address"
        }
      ],
      "name": "Unpaused",
      "type": "event"
    },
    {
      "inputs": [],
      "name": "DEFAULT_ADMIN_ROLE",
      "outputs": [
        {
          "internalType": "bytes32",
          "name": "",
          "type": "bytes32"
        }
      ],
      "stateMutability": "view",
      "type": "function"
    },
    {
      "inputs": [],
      "name": "MARKETPLACE_ADMIN_ROLE",
      "outputs": [
        {
          "internalType": "bytes32",
          "name": "",
          "type": "bytes32"
        }
      ],
      "stateMutability": "view",
      "type": "function"
    },
    {
      "inputs": [],
      "name": "PAUSER_ROLE",
      "outputs": [
        {
          "internalType": "bytes32",
          "name": "",
          "type": "bytes32"
        }
      ],
      "stateMutability": "view",
      "type": "function"
    },
    {
      "inputs": [
        {
          "internalType": "uint256",
          "name": "",
          "type": "uint256"
        }
      ],
      "name": "activeListings",
      "outputs": [
        {
          "internalType": "bytes32",
          "name": "",
          "type": "bytes32"
        }
      ],
      "stateMutability": "view",
      "type": "function"
    },
    {
      "inputs": [
        {
          "internalType": "uint256",
          "name": "",
          "type": "uint256"
        }
      ],
      "name": "allListings",
      "outputs": [
        {
          "internalType": "bytes32",
          "name": "",
          "type": "bytes32"
        }
      ],
      "stateMutability": "view",
      "type": "function"
    },
    {
      "inputs": [
        {
          "internalType": "address",
          "name": "ticketContract",
          "type": "address"
        },
        {
          "internalType": "bool",
          "name": "approved",
          "type": "bool"
        }
      ],
      "name": "approveContract",
      "outputs": [],
      "stateMutability": "nonpayable",
      "type": "function"
    },
    {
      "inputs": [
        {
          "internalType": "address",
          "name": "",
          "type": "address"
        },
        {
          "internalType": "address",
          "name": "",
          "type": "address"
        }
      ],
      "name": "approvedContracts",
      "outputs": [
        {
          "internalType": "bool",
          "name": "",
          "type": "bool"
        }
      ],
      "stateMutability": "view",
      "type": "function"
    },
    {
      "inputs": [
        {
          "internalType": "bytes32",
          "name": "listingId",
          "type": "bytes32"
        }
      ],
      "name": "buyTicket",
      "outputs": [],
      "stateMutability": "payable",
      "type": "function"
    },
    {
      "inputs": [
        {
          "internalType": "bytes32",
          "name": "listingId",
          "type": "bytes32"
        }
      ],
      "name": "cancelListing",
      "outputs": [],
      "stateMutability": "nonpayable",
      "type": "function"
    },
    {
      "inputs": [
        {
          "internalType": "bytes32",
          "name": "listingId",
          "type": "bytes32"
        }
      ],
      "name": "endAuction",
      "outputs": [],
      "stateMutability": "nonpayable",
      "type": "function"
    },
    {
      "inputs": [],
      "name": "eventFactoryAddress",
      "outputs": [
        {
          "internalType": "address",
          "name": "",
          "type": "address"
        }
      ],
      "stateMutability": "view",
      "type": "function"
    },
    {
      "inputs": [],
      "name": "feeRecipient",
      "outputs": [
        {
          "internalType": "address",
          "name": "",
          "type": "address"
        }
      ],
      "stateMutability": "view",
      "type": "function"
    },
    {
      "inputs": [],
      "name": "getActiveListings",
      "outputs": [
        {
          "internalType": "bytes32[]",
          "name": "",
          "type": "bytes32[]"
        }
      ],
      "stateMutability": "view",
      "type": "function"
    },
    {
      "inputs": [
        {
          "internalType": "bytes32",
          "name": "role",
          "type": "bytes32"
        }
      ],
      "name": "getRoleAdmin",
      "outputs": [
        {
          "internalType": "bytes32",
          "name": "",
          "type": "bytes32"
        }
      ],
      "stateMutability": "view",
      "type": "function"
    },
    {
      "inputs": [
        {
          "internalType": "address",
          "name": "user",
          "type": "address"
        }
      ],
      "name": "getUserListings",
      "outputs": [
        {
          "internalType": "bytes32[]",
          "name": "",
          "type": "bytes32[]"
        }
      ],
      "stateMutability": "view",
      "type": "function"
    },
    {
      "inputs": [
        {
          "internalType": "bytes32",
          "name": "role",
          "type": "bytes32"
        },
        {
          "internalType": "address",
          "name": "account",
          "type": "address"
        }
      ],
      "name": "grantRole",
      "outputs": [],
      "stateMutability": "nonpayable",
      "type": "function"
    },
    {
      "inputs": [
        {
          "internalType": "bytes32",
          "name": "role",
          "type": "bytes32"
        },
        {
          "internalType": "address",
          "name": "account",
          "type": "address"
        }
      ],
      "name": "hasRole",
      "outputs": [
        {
          "internalType": "bool",
          "name": "",
          "type": "bool"
        }
      ],
      "stateMutability": "view",
      "type": "function"
    },
    {
      "inputs": [
        {
          "internalType": "address",
          "name": "ticketContract",
          "type": "address"
        },
        {
          "internalType": "uint256",
          "name": "tokenId",
          "type": "uint256"
        },
        {
          "internalType": "uint256",
          "name": "price",
          "type": "uint256"
        },
        {
          "internalType": "uint256",
          "name": "duration",
          "type": "uint256"
        }
      ],
      "name": "listTicket",
      "outputs": [
        {
          "internalType": "bytes32",
          "name": "",
          "type": "bytes32"
        }
      ],
      "stateMutability": "nonpayable",
      "type": "function"
    },
    {
      "inputs": [
        {
          "internalType": "address",
          "name": "ticketContract",
          "type": "address"
        },
        {
          "internalType": "uint256",
          "name": "tokenId",
          "type": "uint256"
        },
        {
          "internalType": "uint256",
          "name": "minBid",
          "type": "uint256"
        },
        {
          "internalType": "uint256",
          "name": "duration",
          "type": "uint256"
        }
      ],
      "name": "listTicketForAuction",
      "outputs": [
        {
          "internalType": "bytes32",
          "name": "",
          "type": "bytes32"
        }
      ],
      "stateMutability": "nonpayable",
      "type": "function"
    },
    {
      "inputs": [
        {
          "internalType": "bytes32",
          "name": "",
          "type": "bytes32"
        }
      ],
      "name": "listings",
      "outputs": [
        {
          "internalType": "bytes32",
          "name": "listingId",
          "type": "bytes32"
        },
        {
          "internalType": "address",
          "name": "seller",
          "type": "address"
        },
        {
          "internalType": "address",
          "name": "ticketContract",
          "type": "address"
        },
        {
          "internalType": "uint256",
          "name": "tokenId",
          "type": "uint256"
        },
        {
          "internalType": "uint256",
          "name": "price",
          "type": "uint256"
        },
        {
          "internalType": "uint256",
          "name": "listingTime",
          "type": "uint256"
        },
        {
          "internalType": "uint256",
          "name": "expirationTime",
          "type": "uint256"
        },
        {
          "internalType": "bool",
          "name": "isActive",
          "type": "bool"
        },
        {
          "internalType": "bool",
          "name": "isAuction",
          "type": "bool"
        },
        {
          "internalType": "uint256",
          "name": "minBid",
          "type": "uint256"
        },
        {
          "internalType": "uint256",
          "name": "highestBid",
          "type": "uint256"
        },
        {
          "internalType": "address",
          "name": "highestBidder",
          "type": "address"
        }
      ],
      "stateMutability": "view",
      "type": "function"
    },
    {
      "inputs": [],
      "name": "marketplaceFee",
      "outputs": [
        {
          "internalType": "uint256",
          "name": "",
          "type": "uint256"
        }
      ],
      "stateMutability": "view",
      "type": "function"
    },
    {
      "inputs": [
        {
          "internalType": "address",
          "name": "",
          "type": "address"
        },
        {
          "internalType": "address",
          "name": "",
          "type": "address"
        },
        {
          "internalType": "uint256",
          "name": "",
          "type": "uint256"
        },
        {
          "internalType": "bytes",
          "name": "",
          "type": "bytes"
        }
      ],
      "name": "onERC721Received",
      "outputs": [
        {
          "internalType": "bytes4",
          "name": "",
          "type": "bytes4"
        }
      ],
      "stateMutability": "pure",
      "type": "function"
    },
    {
      "inputs": [],
      "name": "pause",
      "outputs": [],
      "stateMutability": "nonpayable",
      "type": "function"
    },
    {
      "inputs": [],
      "name": "paused",
      "outputs": [
        {
          "internalType": "bool",
          "name": "",
          "type": "bool"
        }
      ],
      "stateMutability": "view",
      "type": "function"
    },
    {
      "inputs": [
        {
          "internalType": "bytes32",
          "name": "listingId",
          "type": "bytes32"
        }
      ],
      "name": "placeBid",
      "outputs": [],
      "stateMutability": "payable",
      "type": "function"
    },
    {
      "inputs": [
        {
          "internalType": "bytes32",
          "name": "role",
          "type": "bytes32"
        },
        {
          "internalType": "address",
          "name": "callerConfirmation",
          "type": "address"
        }
      ],
      "name": "renounceRole",
      "outputs": [],
      "stateMutability": "nonpayable",
      "type": "function"
    },
    {
      "inputs": [
        {
          "internalType": "bytes32",
          "name": "role",
          "type": "bytes32"
        },
        {
          "internalType": "address",
          "name": "account",
          "type": "address"
        }
      ],
      "name": "revokeRole",
      "outputs": [],
      "stateMutability": "nonpayable",
      "type": "function"
    },
    {
      "inputs": [
        {
          "internalType": "bytes4",
          "name": "interfaceId",
          "type": "bytes4"
        }
      ],
      "name": "supportsInterface",
      "outputs": [
        {
          "internalType": "bool",
          "name": "",
          "type": "bool"
        }
      ],
      "stateMutability": "view",
      "type": "function"
    },
    {
      "inputs": [],
      "name": "unpause",
      "outputs": [],
      "stateMutability": "nonpayable",
      "type": "function"
    },
    {
      "inputs": [
        {
          "internalType": "address",
          "name": "_feeRecipient",
          "type": "address"
        }
      ],
      "name": "updateFeeRecipient",
      "outputs": [],
      "stateMutability": "nonpayable",
      "type": "function"
    },
    {
      "inputs": [
        {
          "internalType": "uint256",
          "name": "_fee",
          "type": "uint256"
        }
      ],
      "name": "updateMarketplaceFee",
      "outputs": [],
      "stateMutability": "nonpayable",
      "type": "function"
    },
    {
      "inputs": [
        {
          "internalType": "address",
          "name": "",
          "type": "address"
        },
        {
          "internalType": "uint256",
          "name": "",
          "type": "uint256"
        }
      ],
      "name": "userBids",
      "outputs": [
        {
          "internalType": "bytes32",
          "name": "",
          "type": "bytes32"
        }
      ],
      "stateMutability": "view",
      "type": "function"
    },
    {
      "inputs": [
        {
          "internalType": "address",
          "name": "",
          "type": "address"
        },
        {
          "internalType": "uint256",
          "name": "",
          "type": "uint256"
        }
      ],
      "name": "userListings",
      "outputs": [
        {
          "internalType": "bytes32",
          "name": "",
          "type": "bytes32"
        }
      ],
      "stateMutability": "view",
      "type": "function"
    }
  ],
  "bytecode": "0x608034620000c357601f6200246438819003918201601f19168301916001600160401b03831184841017620000c8578084926040948552833981010312620000c3576200005a60206200005283620000de565b9201620000de565b6001805560fa6003556200006e33620000f3565b506200007a3362000173565b50620000863362000215565b50600480546001600160a01b039384166001600160a01b031991821617909155600580549290931691161790556040516121919081620002b38239f35b600080fd5b634e487b7160e01b600052604160045260246000fd5b51906001600160a01b0382168203620000c357565b6001600160a01b031660008181527fad3228b676f7d3cd4284a5443f17f1962b36e491b30a40b2405849e597ba5fb5602052604081205490919060ff166200016f57818052816020526040822081835260205260408220600160ff198254161790553391600080516020620024448339815191528180a4600190565b5090565b6001600160a01b031660008181527f6b5a8a332b2310438a3d170044fb639dbd055f98037b72d6612bc1694b91d34e60205260408120549091907f4e9617a5e2ee64b49ea666eb545a00a6f26df1c8ca519835eb93aac8d78894929060ff166200021057808352826020526040832082845260205260408320600160ff1982541617905560008051602062002444833981519152339380a4600190565b505090565b6001600160a01b031660008181527ff7c9542c591017a21c74b6f3fab6263c7952fc0aaf9db4c22a2a04ddc7f8674f60205260408120549091907f65d7a28e3265b37a6474929f336521b332c1681b933f6cb9f3376673440d862a9060ff166200021057808352826020526040832082845260205260408320600160ff1982541617905560008051602062002444833981519152339380a460019056fe6080604052600436101561001257600080fd5b6000803560e01c806301db46a0146117a857806301ffc9a71461175157806309c891f7146116fd5780630eeaa2ef146116ab578063150b7a0214611640578063248a9ca3146116145780632f2ff15d146115d757806330eb80cd1461157757806336568abe1461152f5780633f4ba83a146114c45780634098da3514611466578063469048401461143d578063497ecfc51461123a5780635c48cb28146112115780635c975abb146111ee57806361cf4863146111c35780636a166964146111a55780638210299814610e175780638456cb5914610dbc57806386cfa7d314610d7457806387c35bc014610cfe57806391d1485414610cb35780639299e55214610afe57806396ec50c314610aa8578063a217fddf14610a8c578063b2a4eea014610a51578063c18b8db414610996578063d547741f14610955578063dfb6b9d21461056f578063e54232741461028c578063e63ab1e914610251578063eb18a9d8146101ca5763f160d3691461018857600080fd5b346101c75760203660031901126101c7576101a1611a49565b6101a9611b48565b60018060a01b03166001600160601b0360a01b600454161760045580f35b80fd5b50346101c75760208060031936011261024d576001600160a01b036101ed611a49565b1682526007815260408220916040518092808554928381520194835280832092905b828210610236576102328561022681890382611de6565b60405191829182611b0d565b0390f35b83548652948501946001938401939091019061020f565b5080fd5b50346101c757806003193601126101c75760206040517f65d7a28e3265b37a6474929f336521b332c1681b933f6cb9f3376673440d862a8152f35b5060208060031936011261024d57600435906102a6611fb3565b6102ae611f95565b81835260068152604083209160078301928354936102ce60ff8616611fd6565b60ff8560081c1661052a57600682015442116104f35760048201948554908134106104b757600184019360018060a01b039384865416331461047957908993929161032961271061032160035487612017565b04809561202a565b9260ff19169055610339876120af565b60038560028301541691015490803b1561047557604051632142170760e11b8152306004820152336024820152604481019290925284908290606490829084905af190811561046a578491610452575b508080809387895416828215610449575bf11561043c57818080928560045416828215610433575bf11561041f578585548034116103fb575b50507f45b7099038483dd6451a715ec59b460d70a1b7048d765419f802abd45bf65dd29154169354926040519384523393a46001805580f35b818061040881933461202a565b81811561042a575b3390f11561041f5785386103c2565b6040513d87823e3d90fd5b506108fc610410565b506108fc6103b1565b50604051903d90823e3d90fd5b506108fc61039a565b61045b90611d83565b610466578238610389565b8280fd5b6040513d86823e3d90fd5b8480fd5b60405162461bcd60e51b815260048101899052601660248201527543616e6e6f7420627579206f776e206c697374696e6760501b6044820152606490fd5b60405162461bcd60e51b8152600481018790526014602482015273125b9cdd59999a58da595b9d081c185e5b595b9d60621b6044820152606490fd5b60405162461bcd60e51b815260048101859052600f60248201526e131a5cdd1a5b99c8195e1c1a5c9959608a1b6044820152606490fd5b60405162461bcd60e51b815260048101859052601960248201527f55736520706c61636542696420666f722061756374696f6e73000000000000006044820152606490fd5b50346101c75761057e36611adf565b929190610589611fb3565b610591611f95565b8015610905576105a2841515611d37565b3385526009602052604085209260018060a01b038116938460005260205260ff60406000205416801561089a575b6105d990611e20565b6040516331a9108f60e11b815260048101849052602081602481885afa80156108605761061891889161086b575b506001600160a01b03163314611e8b565b60405160208101916001600160601b03199060601b1682528360348201523360601b60548201524260688201526630bab1ba34b7b760c91b6088820152606f815261066281611dca565b51902093833b1561085c57604051632142170760e11b815233600482015230602482015260448101849052868160648183895af1801561086057610848575b508460406020976106b56107f29442611ec9565b8251906106c182611dad565b848252338b83015288848301528760608301528260808301524260a083015260c0820152600160e0820152600161010082015285610120820152816101408201528161016082015283825260068a5282822081518155600a600182019160018060a01b038d85015116926001600160601b0360a01b93848254161790556002810160018060a01b03878601511684825416179055606084015160038201556080840151600482015560a0840151600582015560c084015160068201556007810161079d60e08601511515829060ff801983541691151516179055565b610100850151151561ff0082549160081b169061ff00191617905561012084015160088201556101408401516009820155019161016060018060a01b0391015116908254161790553381526007895220611f72565b6107fb84611eec565b61080484611f34565b6040519182528482015260016040820152827fa5122e1d6126b58587b6e3c04523d1d66150df4595a37dc3e96d9e0a8627308a60603393a460018055604051908152f35b6108528791611d83565b61085c57386106a1565b8580fd5b6040513d89823e3d90fd5b61088d915060203d602011610893575b6108858183611de6565b810190611e6c565b38610607565b503d61087b565b5060405163e985e9c560e01b8152336004820152306024820152602081604481885afa8015610860576105d99188916108d6575b5090506105d0565b6108f8915060203d6020116108fe575b6108f08183611de6565b810190611e08565b386108ce565b503d6108e6565b60405162461bcd60e51b815260206004820152602260248201527f4d696e696d756d20626964206d7573742062652067726561746572207468616e604482015261020360f41b6064820152608490fd5b50346101c75760403660031901126101c757610992600435610975611a64565b908084528360205261098d6001604086200154611c1e565b611cc2565b5080f35b50346101c75760203660031901126101c757604061018091600435815260066020522080549060018060a01b0390816001820154169160ff8160028401541660038401546004850154600586015490600687015492600788015494600889015497600a60098b01549a015416996040519b8c5260208c015260408b015260608a0152608089015260a088015260c0870152818116151560e087015260081c161515610100850152610120840152610140830152610160820152f35b50346101c757806003193601126101c75760206040517f4e9617a5e2ee64b49ea666eb545a00a6f26df1c8ca519835eb93aac8d78894928152f35b50346101c757806003193601126101c757602090604051908152f35b50346101c75760403660031901126101c757610ac2611a49565b6001600160a01b03168152600860205260408120805460243592908310156101c7576020610af08484611ac7565b90546040519160031b1c8152f35b50346101c75760203660031901126101c757600435610b1b611fb3565b8082526006602052604082206007810183815492610b3b60ff8516611fd6565b600181019260ff60018060a01b03958686541633148015610c6e575b610b6090612074565b60081c1680610c5f575b610c2d575b805460ff19169055610b80856120af565b8360028201541690600385855416910154823b15610c1e57604051632142170760e11b81523060048201526001600160a01b0392909216602483015260448201529082908290606490829084905af18015610c2257610c0a575b50505416907faf2daca9870585bf8789d28a6290e0b49491e1fb967adc141b2a68c5e386d9768380a36001805580f35b610c1390611d83565b610c1e578338610bda565b8380fd5b6040513d84823e3d90fd5b8280808088600a87015416600987015490828215610c56575bf1610b6f576040513d84823e3d90fd5b506108fc610c46565b5084600a830154161515610b6a565b507f4e9617a5e2ee64b49ea666eb545a00a6f26df1c8ca519835eb93aac8d78894928552846020526040852033600052602052610b6082604060002054169050610b57565b50346101c75760403660031901126101c7576040610ccf611a64565b91600435815280602052209060018060a01b0316600052602052602060ff604060002054166040519015158152f35b50346101c757806003193601126101c757604051600b80548083529083526020808301937f0175b7a638427703f0dbe7bb9bbf987a2551717b34e79f33b5b1008d1fa01db992915b828210610d5d576102328561022681890382611de6565b835486529485019460019384019390910190610d46565b50346101c75760403660031901126101c757610d8e611a49565b6001600160a01b03168152600760205260408120805460243592908310156101c7576020610af08484611ac7565b50346101c757806003193601126101c757610dd5611bc2565b610ddd611f95565b600160ff1960025416176002557f62e78cea01bee320cd4e420270b5ea74000d11b0c9f74754ebdbfc544b05a2586020604051338152a180f35b50346101c757610e2636611adf565b93610e3393929193611fb3565b610e3b611f95565b831561116057610e4c851515611d37565b3381526009602052604081209260018060a01b038116938460005260205260ff604060002054168015611103575b610e8390611e20565b6040516331a9108f60e11b815260048101849052602081602481885afa9081156110f85790610ec391849161086b57506001600160a01b03163314611e8b565b60405160208101916001600160601b03199060601b1682528360348201523360601b605482015242606882015260688152610efd81611dca565b51902093833b1561024d57604051632142170760e11b815233600482015230602482015260448101849052828160648183895af180156110f8576110e4575b50610f4960209642611ec9565b60405190610f5682611dad565b86825233888301528560408301528460608301528260808301524260a083015260c0820152600160e082015282610100820152826101208201528261014082015282610160820152858352600687526040832081518155600a600182019160018060a01b038a85015116926001600160601b0360a01b93848254161790556002810160018060a01b0360408601511684825416179055606084015160038201556080840151600482015560a0840151600582015560c084015160068201556007810161103460e08601511515829060ff801983541691151516179055565b610100850151151561ff0082549160081b169061ff00191617905561012084015160088201556101408401516009820155019161016060018060a01b039101511690825416179055338252600786526110908560408420611f72565b61109985611eec565b6110a285611f34565b604051928352858301526040820152827fa5122e1d6126b58587b6e3c04523d1d66150df4595a37dc3e96d9e0a8627308a60603393a460018055604051908152f35b6110ee8391611d83565b61024d5738610f3c565b6040513d85823e3d90fd5b5060405163e985e9c560e01b8152336004820152306024820152602081604481885afa9081156110f85790610e83918491611141575b509050610e7a565b61115a915060203d6020116108fe576108f08183611de6565b38611139565b60405162461bcd60e51b815260206004820152601c60248201527f5072696365206d7573742062652067726561746572207468616e2030000000006044820152606490fd5b50346101c757806003193601126101c7576020600354604051908152f35b50346101c75760203660031901126101c75760043590600b548210156101c7576020610af083611a7a565b50346101c757806003193601126101c757602060ff600254166040519015158152f35b50346101c757806003193601126101c7576005546040516001600160a01b039091168152602090f35b5060208060031936011261024d57600435611253611fb3565b61125b611f95565b808352600682526040832061128460ff600783015461127b828216611fd6565b60081c16612037565b600681015442116114065760018101546001600160a01b039190821633146113c15760088101543410611388576009810190815490813411156113555790600a879201938454169081611330575b505050349055336001600160601b0360a01b825416179055338352600882526112fe8160408520611f72565b7f96d59693caec7bfbd896ccf6bb677a3b2230fec3c76d4b1b482a8670996c7c66604051923484523393a36001805580f35b82809291819282821561134c575bf11561046a578438806112d2565b506108fc61133e565b60405162461bcd60e51b815260048101879052600b60248201526a42696420746f6f206c6f7760a81b6044820152606490fd5b60405162461bcd60e51b81526004810185905260116024820152704269642062656c6f77206d696e696d756d60781b6044820152606490fd5b60405162461bcd60e51b815260048101859052601960248201527f43616e6e6f7420626964206f6e206f776e2061756374696f6e000000000000006044820152606490fd5b60405162461bcd60e51b815260048101849052600f60248201526e105d58dd1a5bdb88195e1c1a5c9959608a1b6044820152606490fd5b50346101c757806003193601126101c7576004546040516001600160a01b039091168152602090f35b50346101c75760403660031901126101c757611480611a49565b6024358015158103610466576114c1913384526009602052604084209060018060a01b031660005260205260406000209060ff801983541691151516179055565b80f35b50346101c757806003193601126101c7576114dd611bc2565b60025460ff81161561151d5760ff19166002557f5db9ee0a495bf2e6ff9c91a7834c1ba4fdd244a5e8aa4e537bd38aeae4b073aa6020604051338152a180f35b604051638dfc202b60e01b8152600490fd5b50346101c75760403660031901126101c757611549611a64565b336001600160a01b038216036115655761099290600435611cc2565b60405163334bd91960e11b8152600490fd5b50346101c75760203660031901126101c757600435611594611b48565b6103e881116115a35760035580f35b60405162461bcd60e51b815260206004820152600c60248201526b08ccaca40e8dede40d0d2ced60a31b6044820152606490fd5b50346101c75760403660031901126101c7576109926004356115f7611a64565b908084528360205261160f6001604086200154611c1e565b611c44565b50346101c75760203660031901126101c757600160406020926004358152808452200154604051908152f35b50346101c75760803660031901126101c75761165a611a49565b50611663611a64565b5060643567ffffffffffffffff808211610466573660238301121561046657816004013590811161046657369101602401116101c757604051630a85bd0160e11b8152602090f35b50346101c75760203660031901126101c757600435600a5481101561024d57602090600a6000527fc65a7bb8d6351c1cf70c95a316cc6a92839c986682d98bc35f958f4883f9d2a80154604051908152f35b50346101c75760403660031901126101c757611717611a49565b6040611721611a64565b9260018060a01b0380931681526009602052209116600052602052602060ff604060002054166040519015158152f35b50346101c75760203660031901126101c75760043563ffffffff60e01b811680910361024d57602090637965db0b60e01b8114908115611797575b506040519015158152f35b6301ffc9a760e01b1490508261178c565b50346101c75760203660031901126101c7576004356117c5611fb3565b8082526006602052604082209060078201918254906117e660ff8316611fd6565b6117f560ff8360081c16612037565b6006810154421115611a0d57600181019360018060a01b039283865416331480156119fe575b61182490612074565b60ff19169055611833836120af565b600a8101805490919083161561195c578060098792019586549161186761271061185f60035486612017565b04809461202a565b918660028301541691600388885416910154833b1561195857604051632142170760e11b81523060048201526001600160a01b0392909216602483015260448201529185908390606490829084905af190811561041f578592889261193f575b508293839283925416828215611936575bf11561043c5781808092866004541682821561192d575bf11561046a577f4898413e58dd21ed9179dd98f8c9313f8359aae688bff5403ed56a6677bcfe979160209154169354604051908152a35b6001805580f35b506108fc6118ef565b506108fc6118d8565b61194b91939250611d83565b610c1e57858491386118c7565b8680fd5b92949391600391508060028501541692541692015491813b15610c1e57604051632142170760e11b81523060048201526001600160a01b03919091166024820152604481019290925282908290606490829084905af18015610c22576119ef575b5080917f4898413e58dd21ed9179dd98f8c9313f8359aae688bff5403ed56a6677bcfe976020604051848152a3611926565b6119f890611d83565b386119bd565b50600a8301548416331461181b565b60405162461bcd60e51b815260206004820152601460248201527341756374696f6e207374696c6c2061637469766560601b6044820152606490fd5b600435906001600160a01b0382168203611a5f57565b600080fd5b602435906001600160a01b0382168203611a5f57565b600b54811015611ab157600b6000527f0175b7a638427703f0dbe7bb9bbf987a2551717b34e79f33b5b1008d1fa01db90190600090565b634e487b7160e01b600052603260045260246000fd5b8054821015611ab15760005260206000200190600090565b6080906003190112611a5f576004356001600160a01b0381168103611a5f5790602435906044359060643590565b6020908160408183019282815285518094520193019160005b828110611b34575050505090565b835185529381019392810192600101611b26565b3360009081527f6b5a8a332b2310438a3d170044fb639dbd055f98037b72d6612bc1694b91d34e60205260409020547f4e9617a5e2ee64b49ea666eb545a00a6f26df1c8ca519835eb93aac8d78894929060ff1615611ba45750565b6044906040519063e2517d3f60e01b82523360048301526024820152fd5b3360009081527ff7c9542c591017a21c74b6f3fab6263c7952fc0aaf9db4c22a2a04ddc7f8674f60205260409020547f65d7a28e3265b37a6474929f336521b332c1681b933f6cb9f3376673440d862a9060ff1615611ba45750565b80600052600060205260406000203360005260205260ff6040600020541615611ba45750565b9060009180835282602052604083209160018060a01b03169182845260205260ff60408420541615600014611cbd57808352826020526040832082845260205260408320600160ff198254161790557f2f8788117e7eff1d82e926ec794901d17c78024a50270940304540a733656f0d339380a4600190565b505090565b9060009180835282602052604083209160018060a01b03169182845260205260ff604084205416600014611cbd5780835282602052604083208284526020526040832060ff1981541690557ff6391f5c32d9c69d2a47ea670b442974b53935d1edc7fd64eb21e047a839171b339380a4600190565b15611d3e57565b60405162461bcd60e51b815260206004820152601f60248201527f4475726174696f6e206d7573742062652067726561746572207468616e2030006044820152606490fd5b67ffffffffffffffff8111611d9757604052565b634e487b7160e01b600052604160045260246000fd5b610180810190811067ffffffffffffffff821117611d9757604052565b60a0810190811067ffffffffffffffff821117611d9757604052565b90601f8019910116810190811067ffffffffffffffff821117611d9757604052565b90816020910312611a5f57518015158103611a5f5790565b15611e2757565b60405162461bcd60e51b815260206004820152601860248201527f4d61726b6574706c616365206e6f7420617070726f76656400000000000000006044820152606490fd5b90816020910312611a5f57516001600160a01b0381168103611a5f5790565b15611e9257565b60405162461bcd60e51b815260206004820152600f60248201526e2737ba103a37b5b2b71037bbb732b960891b6044820152606490fd5b91908201809211611ed657565b634e487b7160e01b600052601160045260246000fd5b600a54600160401b811015611d97576001810180600a55811015611ab157600a6000527fc65a7bb8d6351c1cf70c95a316cc6a92839c986682d98bc35f958f4883f9d2a80155565b600b5490600160401b821015611d9757611f57826001611f709401600b55611a7a565b90919082549060031b91821b91600019901b1916179055565b565b90815491600160401b831015611d975782611f57916001611f7095018155611ac7565b60ff60025416611fa157565b60405163d93c066560e01b8152600490fd5b600260015414611fc4576002600155565b604051633ee5aeb560e01b8152600490fd5b15611fdd57565b60405162461bcd60e51b81526020600482015260126024820152714c697374696e67206e6f742061637469766560701b6044820152606490fd5b81810292918115918404141715611ed657565b91908203918211611ed657565b1561203e57565b60405162461bcd60e51b815260206004820152600e60248201526d2737ba1030b71030bab1ba34b7b760911b6044820152606490fd5b1561207b57565b60405162461bcd60e51b815260206004820152600c60248201526b155b985d5d1a1bdc9a5e995960a21b6044820152606490fd5b9060005b600b805480831015612154579084916120cb84611a7a565b939054600394851b1c146120ed575050506000198114611ed6576001016120b3565b90929193945060001991828201918211611ed657611f5761211061211c93611a7a565b905490871b1c91611a7a565b8154801561213e5781019261213084611a7a565b81939154921b1b1916905555565b634e487b7160e01b600052603160045260246000fd5b505050905056fea26469706673582212208c75f430f85c61ba5f2d5339f7cd2624f9895afa76fd0b8f2701cac92fea17d864736f6c634300081400332f8788117e7eff1d82e926ec794901d17c78024a50270940304540a733656f0d",
  "linkReferences": {},
  "deployedLinkReferences": {}
}